:020000040800F2
:10000000B03D0020AD010008A9010008A9010008C9
:10001000A9010008A9010008A901000800000000CA
:10002000000000000000000000000000A90100081E
:10003000A901000800000000A9010008052E000821
:10004000A9010008A9010008A90100084D2E000817
:10005000A90100084D1D0008E50D0008310E00083B
:100060007D0E0008C90E0008150F0008B117000822
:100070008118000819180008E9180008511900082B
:10008000B9190008211A000811160008A901000872
:10009000A9010008A9010008A9010008610F0008D2
:1000A000213100085D310008993100080D30000849
:1000B000E931000805320008213200088D260008C9
:1000C000A901000851270008A9010008A925000876
:1000D000F5250008D53B0008FD3B0008253C00083D
:1000E000D10F0008A9010008A901000891320008F9
:1000F000CD320008093300083530000859160008D1
:10010000A9010008A90100083D32000841260008A5
:100110004D3C0008753C0008593200087532000853
:10012000891A0008F11A0008591B0008C11B0008B1
:10013000291C0008A9010008A9010008A90100085C
:10014000A9010008A9010008A9010008A9010008E7
:100150005FF808F110B5054C237833B9044B13B19F
:100160000448AFF300800123237010BD78090020FC
:10017000000000000034010808B5064B1BB106481A
:100180000649AFF300800648036813B1054B03B17D
:10019000984708BD00000000003401087C090020D9
:1001A0007009002000000000FEE700BF1149124B5B
:1001B00010B499420BD2C843184420F003000F4CEE
:1001C00004300023E258CA5004338342FAD10C4B66
:1001D0000C4A93420AD2D943114421F00301194435
:1001E0000022043B43F8042F8B42FBD15DF8044B03
:1001F00001F012B90000002074090020F036010857
:1002000078090020B039002000207047024B187890
:100210005B78C01A704700BF94090020064B5A78DB
:100220001978914204D99918013208795A707047A7
:100230004FF0FF30704700BF94090020044B5A78FC
:100240001978914286BF9B1818794FF0FF3070479C
:1002500094090020704700BF38B505460C46084693
:1002600041B10EF0E3F82B68024621469B68284610
:10027000984738BD38BD00BF2DE9F041144E82B01B
:1002800096F8243005460C4690466BB142B18F1863
:100290002E6814F8011B36682846B047BC42F7D1D7
:1002A000404602B0BDE8F081406901300128686134
:1002B000286905D002F062FB404602B0BDE8F0813B
:1002C00096F8251022460093434602F0A9FBE7E783
:1002D0009409002038B5164C0A4694F8243043B1EE
:1002E00094F826301F2B10D901230025436028469F
:1002F00038BD45690135012D4561006913D01A46A5
:1003000002F01CFB0125284638BD94F82710012572
:100310004B19DBB2214484F8273084F8263081F869
:100320002820284638BD94F8251002F0E1FAEAE7C3
:100330009409002070B5174C0546006901F040FD96
:10034000154E4FF40071204600F046FF01F038FDD5
:10035000204632464FF4007100F0CEFE2046324671
:100360004FF4807100F0C8FE2C6901F021FF0022DB
:1003700001460123204602F01BFA286902F060FAC8
:10038000064B00225A701A7083F8272083F8262023
:1003900070BD00BF000C01400200008094090020E5
:1003A000054B0022012083F8251083F8240083F8F0
:1003B000272083F8262070479409002008B5036899
:1003C0001B68984708BD00BF10B50B4C82B094F86D
:1003D000252094F8263000690091114604F1280286
:1003E00002F01EFB0023C0B284F8273084F82630C8
:1003F00084F8243002B010BD940900200121FFF7D9
:10040000E3BF00BF30B5094C83B0202A34BF154686
:1004100020250069221D00932B4602F0B9FB002322
:10042000C0B22070637003B030BD00BF94090020DB
:100430000123FFF7E7BF00BF08B503681B699847B2
:1004400008BD00BF074B0848084910B400224FF40C
:100450007A749C65186519665A655A665DF8044B8E
:10046000704700BF94090020781B01080054004029
:10047000EFF3108072B67047EFF3108062B67047EA
:1004800008B5FFF7F9FFC0B208BD00BF08B5FFF718
:10049000EFFFC0B208BD00BF10F0FF0370B40DD174
:1004A0002B4B98421CD02B4B984230D02A4B984271
:1004B0003FD02A4B98421DD070BC704700F003001B
:1004C000C000FF2484408140254A03F0FC0313440C
:1004D0001B6A1A6822EA04000843186070BC70475F
:1004E0000A0442EA01220A431E4B42EA01611960F2
:1004F00070BC7047080440EA01201B4A08431B4BAC
:1005000040EA016010601A6870BC19607047184BAF
:10051000080640EA0142174C1D681A6042EA0125AC
:10052000154A23682560154B146810601A68196015
:10053000C2E708060F4A40EA0145114C41EA012191
:10054000104B0D431668106025601A681960B3E7F8
:10055000000029080000031100001109000021100B
:10056000B01B010818E400E038E400E03CE400E0DF
:1005700004E400E008E400E014E400E028E400E023
:100580000CE400E010E400E00428F0B43FD00528BB
:1005900052D0062857D00F2825D0C3B2103B432B8A
:1005A0003CD9020AD3B2103B442B23D9434B984287
:1005B00050D0434B98425BD0424B98426CD0424B58
:1005C000984215D1414B4FF080754FF000744FF0B9
:1005D00080604FF000614FF080521D601C60186019
:1005E00019601A6004E03A4B1A6842F002021A607D
:1005F000F0BC7047103A02F01F02012101FA02F22A
:100600005B0903F1382340339B001A60F0E7314B5C
:10061000F0BC1A6842F480321A607047103800F05B
:100620001F00012202FA00F0F0BC5B0903F138233D
:1006300040339B0018607047264BF0BC1A6842F4A8
:1006400000321A607047234BF0BC1A6842F48022D3
:100650001A607047204B4FF080744FF000704FF0DD
:1006600080614FF000621C60186019601A60BFE77B
:10067000194B16494FF48072402780264FF40075BD
:100680004FF480644FF400001F601E601A601D600C
:100690001C6018600A60ABE70F4B4FF400674FF423
:1006A00080561F604FF400554FF480444FF40040D3
:1006B0004FF480314FF400321E608EE700002908AD
:1006C00000000311000011090000211004E100E006
:1006D00010E000E024ED00E000E100E00428F0B4C8
:1006E00040D0052852D0062857D00F2827D0C3B2B3
:1006F000A3F11002432A3CD9020AD3B2A3F110019C
:10070000442923D9424B98424ED0424B984259D06B
:10071000414B98426AD0414B984215D1404B4FF023
:1007200080754FF000744FF080604FF000614FF023
:1007300080521D601C60186019601A6004E0394B1B
:100740001A6822F002021A60F0BC704702F01F0221
:10075000012101FA02F25B0903F1382360339B00A7
:100760001A60F1E7304BF0BC1A6822F480321A604C
:10077000704700F01F00012202FA00F0F0BC5B0994
:1007800003F1382360339B0018607047264BF0BCA0
:100790001A6822F400321A607047234BF0BC1A68C2
:1007A00022F480221A607047204B4FF080744FF083
:1007B00000704FF080614FF000621C60186019609B
:1007C0001A60C1E7194B16494FF480724027802602
:1007D0004FF400754FF480644FF400001F601E60FA
:1007E0001A601D601C6018600A60ADE70F4B4FF483
:1007F00000674FF480561F604FF400554FF480445B
:100800004FF400404FF480314FF400321E6090E707
:100810000000290800000311000011090000211048
:1008200084E100E010E000E024ED00E080E100E081
:10083000024B1A6842F005021A60704710E000E0AF
:10084000024B1A6842F002021A60704710E000E0A2
:10085000014B01381860704714E000E0002264305A
:10086000134601F0E5BD00BF02282DE9F00F37D88F
:100870000138C0B24200244B02EB000A03EBCA0A63
:100880009AF848B0BBF1000F0ED0104403EBC00043
:100890003430438989B203FB01F1BDE8F00F1B4BF3
:1008A000B3FBF1F1016070474FF0C80B8AF84800C4
:1008B000AAF83EB0CAF84430A0B101281BD002EB20
:1008C000000A03EBCA0A8AF838808AF83BC08AF823
:1008D00039708AF83A608AF83C508AF83D40D4E78B
:1008E0000020D6E70C240B2509260A274FF00D0C13
:1008F0004FF00808E3E706240525032604274FF0F8
:10090000070C4FF00208DAE7FC0900200087930388
:1009100070B500F1100382B004460E4600F14005A8
:10092000002243F8082C03F8042C03F80A2C03F8DF
:100930000B2C03F80C2C0C33AB424FF00000F0D121
:1009400084F8400084F84800E08784F8580084F870
:100950006000A4F85600402104F1640001F066FD37
:100960002670314601A801F061FD9DF80430204653
:1009700084F8643002B070BD70B5044600F16405BF
:100980000C480E46FFF7D6FC284601F0ADFD668008
:1009900030460AF06DFF0146284601F0B5FD0024FF
:1009A0000022E1B213462846013401F041FD102C2B
:1009B000F6D170BDE409002010B5094C9AB0684624
:1009C0006021FFF7A5FF6946652220460DF09AF8E1
:1009D00020464FF4C861FFF7CFFF1AB010BD00BF2B
:1009E000FC090020B2F5805F00F1640003D21346D9
:1009F000002201F01DBD4FF48052002301F018BD0C
:100A00002AB164304FF48052002301F011BDFFF78A
:100A100025BF00BF10B5044661790069FFF71EFFCE
:100A20002069A179FFF71AFF2069217AFFF716FFE5
:100A30002069617AFFF712FF206921790022FFF710
:100A4000D1FF2069E1790022BDE81040FFF7CABF5D
:100A500002282DE9F00731D8431EDBB25900234AA2
:100A600001EB030902EBC90999F848A0BAF1000F9C
:100A700008D00B4402EBC30202F13400BDE8F007DA
:100A8000FFF7C8BF4FF0C80A89F84830A9F83EA060
:100A9000C9F84420BBB1012B1ED001EB030902EBC6
:100AA000C90989F8388089F83BC089F8397089F814
:100AB0003A6089F83C5089F83D40DAE70020BDE80B
:100AC000F007FFF7A7BF0C240B2509260A274FF0D4
:100AD0000D0C4FF00808E0E706240525032604273F
:100AE0004FF0070C4FF00208D7E700BFFC090020C9
:100AF000F8B5012A15460446037B00F0A680022AB9
:100B000049D0032A49D0042A40F0CA8001290CBFE9
:100B1000013303F1FF33DBB203F03F030F2B40F24D
:100B2000B180A3F110020F2A00F2BF806B49C3F11C
:100B30002000CA1812F8102C0D5C12012D0120693A
:100B400021792373FFF74EFF2A462069E179FFF7E9
:100B500049FF237B102BA3F1100234BF032500258E
:100B60000F2AA3F1200298BF45F00605303B0F2A5B
:100B700098BF45F00C050F2B2BD845F00905EB0766
:100B800029D405F0020705F0040605F00805FFB2B8
:100B9000F6B2EDB254E01A077CD401290CBF083339
:100BA000083BDBB203F03F032373206921794FF444
:100BB0007F62FFF717FF2069E1794FF47F62FFF74B
:100BC00011FF042DC5D0237BDB08072B35D8444A01
:100BD000D55CEB07D5D52069A1790122FFF710FF7D
:100BE00005F0020705F0040605F00805FFB2F6B2AD
:100BF000EDB22069217A7FB10122FFF701FF206960
:100C000061797EB10122FFF7FBFE2069617A7DB92F
:100C1000FFF724FE207BF8BDFFF720FE20696179F5
:100C2000002EEFD1FFF71AFE2069617A002DEFD078
:100C30000122FFF7E5FE207BF8BD00252E462F465A
:100C40002069A179FFF70AFED3E7180714D4012918
:100C50000CBF1033103BDBB203F03F03206923735A
:100C600021794FF47F62FFF7BDFE2069E1794FF4EF
:100C70007F62FFF7B7FEA6E701290CBF0833083BE8
:100C8000DBB2E9E71549C3F110028A5CCD5C1201C1
:100C90002D0154E701290CBF1033103BDBB281E773
:100CA00003F03F0300692373DAE7A3F120020F2A60
:100CB00009D80A4AC3F13001D01810F8205C525C00
:100CC0002D0112013BE70549C3F14000CA1812F893
:100CD000302C0D5C12012D0131E700BF0000002017
:100CE0002C1C0108032B2DE9F04106461D469046B9
:100CF000076815D0042B0FD061B10C4641462A4637
:100D00003046013CFFF7F4FEA4B2384602F092F8F8
:100D1000002CF3D1BDE8F081090189B23F09EBE76E
:100D20007F08E9E72DE9F00F022882B034D80138B6
:100D3000C0B24500274C05EB000A04EBCA0A9AF83A
:100D400048B0BBF1000F09D0284404EBC000343098
:100D500089B202B0BDE8F00FFFF7C4BF4FF0C80B77
:100D60008AF84800AAF83EB0CAF84440D8B1012831
:100D700025D005EB000A04EBCA0A8AF83A60009E07
:100D80008AF838808AF83C60019E8AF83BC08AF86D
:100D900039708AF83D60D7E7002089B202B0BDE81B
:100DA000F00FFFF79FBF0B264FF00C0C8DE84010A3
:100DB0000A2709264FF00D0C4FF00808D9E7052641
:100DC00006278DE8C0004FF0070C032604274FF0DC
:100DD0000208CEE7FC09002001486021FFF798BD1A
:100DE000FC090020104B2DE9F0411F681A680F4DD7
:100DF00042F00102A8461A60002402E00834402CA8
:100E00000FD02B5B012BF9D108EB0406766800208C
:100E1000394602460346002EF0D00834B047402C35
:100E2000EFD1BDE8F08100BF14040140640A002046
:100E3000104B2DE9F0411F681A680F4D42F0020275
:100E4000A8461A60002402E00834402C0FD02B5B27
:100E5000022BF9D108EB04067668002039460246D9
:100E60000346002EF0D00834B047402CEFD1BDE847
:100E7000F08100BF14040140640A0020104B2DE9EA
:100E8000F0411F681A680F4D42F00402A8461A602C
:100E9000002402E00834402C0FD02B5B042BF9D146
:100EA00008EB040676680020394602460346002E09
:100EB000F0D00834B047402CEFD1BDE8F08100BF3E
:100EC00014040140640A0020104B2DE9F0411F6812
:100ED0001A680F4D42F00802A8461A60002402E08A
:100EE0000834402C0FD02B5B082BF9D108EB0406FB
:100EF00076680020394602460346002EF0D00834BA
:100F0000B047402CEFD1BDE8F08100BF1404014090
:100F1000640A0020104B2DE9F0411F681A680F4D3C
:100F200042F01002A8461A60002402E00834402C67
:100F30000FD02B5B102BF9D108EB0406766800204C
:100F4000394602460346002EF0D00834B047402C04
:100F5000EFD1BDE8F08100BF14040140640A002015
:100F6000194B2DE9F0411B68980603D459061FD58B
:100F7000402600E02026144B144D1A68A846324340
:100F80001A60002402E00834402C0FD02B5BB342DF
:100F9000F9D108EB04077F680020014602460346AA
:100FA000002FF0D00834B847402CEFD1BDE8F081D5
:100FB0001A0601D58026DEE713F4807F0CBF4FF4BC
:100FC00000764FF48076D6E714040140640A0020CE
:100FD0002DE9F8431F4BD3F8008018F4806F05D13A
:100FE00018F4006F21D04FF4006601E04FF48066E2
:100FF000184B194D1A68A94632431A60002402E0C2
:101000000834402C0FD02B5BB342F9D109EB040715
:101010007F680020414602460346002FF0D0083486
:10102000B847402CEFD1BDE8F88318F4805F0AD1AF
:1010300018F4005F0AD118F4804F0CBF4FF400463B
:101040004FF48046D4E74FF48056D1E74FF4005672
:10105000CEE700BF14040140640A0020072910B441
:1010600012D901F18041083989000F248C401A43BC
:1010700002FA01F1426822EA040343604468214312
:1010800041605DF8044B704789000F248C401A437F
:1010900002FA01F1026822EA0403036004682143B2
:1010A00001605DF8044B70472DE9F04782460F461A
:1010B00002F00C0902F003080024012602E00134CA
:1010C000102C0CD006FA04F53D42F8D021465046CB
:1010D0004A4643460134FFF7C1FF102CF2D1BDE868
:1010E000F08700BFC368D20700F10C004CBF194362
:1010F00023EA010101607047F8B51B4BC2F300748D
:1011000053F8246022F070470024520F21FA04F5AE
:10111000012D02D00134102CF8D16AB1012A16D069
:10112000032A1AD0042A0CD0336823EA0703336059
:1011300033681F433760F8BD21461346FFF78EFF23
:10114000F2E721460C220323FFF788FFECE7214654
:1011500004220023FFF782FFE6E713462146082218
:10116000FFF77CFFE0E700BF341C0108124B9842F8
:101170001FD00CD9114B984213D003F580639842CD
:1011800015D0A3F5006398420DD000207047A3F559
:101190000063984209D003F580639842F5D108486E
:1011A0007047084870470848704708487047084823
:1011B00070470848704700BF001001400018014008
:1011C0000800001040000010200000100400001073
:1011D0008000001010000010704700BF10B50246DC
:1011E0000C4609481E21002301F082FB08B10120B2
:1011F00010BD22461E210123034801F06FFC003080
:1012000018BF012010BD00BF0058004030B583B0AA
:10121000002502AC224804F8015D00F0C1FD214820
:1012200000F0BEFD204800F0CBFD20484FF4806167
:101230004FF00042FFF760FF4FF400614FF00042B3
:101240001A48FFF759FF184801F0FAFA00F0B0FF0A
:101250002A4601460123144801F0AAFA21460A2031
:10126000FFF7BCFF18B99DF80730482B02D00120CA
:1012700003B030BD0B202146FFF7B0FF0028F6D1A8
:101280009DF80730342BF2D121460C20FFF7A6FF42
:101290000028ECD19DF80700333818BF0120E7E79C
:1012A000080000100100001000580040000C014030
:1012B00070B5002482B005460E46024623460F480C
:1012C0001E218DF8074001F013FB10B1012002B080
:1012D00070BD0A483146012201F030FB0028F5D1EB
:1012E00028460DF10701FFF779FF0028EED19DF8A0
:1012F0000700801B18BF012002B070BD00580040DD
:1013000010B5044682B00020E1008DF8070006D435
:101310000120A2000BD4630017D402B010BD0DF160
:101320000701FFF75BFFD8B1012002B010BD24F028
:101330000054C4F30743194601208DF80730FFF726
:10134000B7FF0128F0D06300E7D524F08044240ED5
:10135000214602208DF80740FFF7AAFF02B010BD1A
:101360009DF8073024F08054E24303F07F0303EA42
:1013700012232343DBB219468DF80730FFF798FF9D
:101380000128C6D1D0E700BF2DE9F04182B002AC00
:10139000002304F8013D05460E460320214617466A
:1013A000FFF71CFF30B9042021469DF80780FFF7A6
:1013B00015FF18B1012002B0BDE8F0819DF807309B
:1013C000072043EA0828A5F800802146FFF706FF1A
:1013D0000028EFD1082021469DF80750FFF7FEFEB8
:1013E0000028E7D19DF80730052043EA0525358020
:1013F0002146FFF7F3FE0028DCD1214606209DF8A8
:101400000740FFF7EBFE0028D4D19DF8073043EAF0
:1014100004243C80CFE700BF80B56F496F4800F0DF
:1014200015FD6F4F6F4800F0BBFC42F2107000F0EA
:101430009DFC3B781BB96C4A01237A603B7097F89E
:101440000028674B2AB969490122C3F8041883F8B8
:10145000002897F81028624B2AB965490122C3F881
:10146000141883F8102897F820285D4B2AB9614991
:101470000122C3F8241883F8202801F035FD5E48C6
:10148000022101F08DFD01F0B1FD5C4CDFF87C81A3
:1014900004F57269264608F1AC0501F099FD94F84F
:1014A000093F84F8080F062BF7D8DFE803F0372F41
:1014B00050291F0A04005A2860D0002384F8093FED
:1014C000EBE795F88020D4F8141F531C885494F847
:1014D000102FDBB29A4285F880304949DDD10022D5
:1014E000062381F8802086F8093FD6E784F8100F9C
:1014F000E8B30022052385F8802086F8093FCCE771
:10150000042384F80F0F84F8093FC6E78306D4D17B
:10151000022384F80D0F84F8093FBEE70023A528B5
:10152000C4F8149FC4F81C8F84F80C3F84F80D3F56
:1015300084F80E3F84F80F3F84F8103F84F8183F7A
:10154000ABD1012386F80D0F86F8093FA5E794F883
:101550000D3F9B0900EB032217F8322085F88030FD
:101560004AB1032386F80E0F86F8093F95E7062354
:1015700086F8093F91E786F8092F8EE794F80D2F3A
:1015800094F80E3F920903EB022307EBC3035A685A
:10159000002101231B48C5F8843084F8091FC5F8D1
:1015A0008830904794F80C3F8BB11348022101F02A
:1015B000F7FC94F8180F38B101F0FAFCD6F81C0FBC
:1015C00096F8181F01F0ECFC01F010FD65E70E48DD
:1015D000022101F0E5FCECE70108010000A24A0449
:1015E000A40A002001000010893A00089939000877
:1015F000253A0008E13A0008140000209C1B002056
:10160000942C0020A82A002018000020E82B00209D
:101610000E4B10B51968480708D00D4AC843146826
:1016200018601CB1002002460346A047094B196808
:101630004A070AD0064AA3F580635468CA431A6071
:101640001CB1002002460346A04710BD0024014003
:10165000202D0020002801400D4A10B51368D94301
:10166000D807116003F002010DD55A0741F00101BE
:1016700001D541F00401074B1C681CB10020024653
:101680000346A04710BD5B07F3D40029F3D110BD7A
:1016900000280140202D00202DE9F0410024804643
:1016A0000D46264608EB040319790A22284601F064
:1016B00059FB2E210746284601F008FB0134384427
:1016C000032C0644EED1284698F807100A2201F0B0
:1016D00049FB3044BDE8F081044B05490022196004
:1016E0001A715A719A71DA71704700BF2C2D00205F
:1016F000581C010870B504460E461546FEF7C6FE96
:1017000023681E44266023689D4205D823685B1B1E
:1017100023602368AB42F9D200B170BDBDE87040D0
:10172000FEF7AEBE426803680132B2FBF3F103FB81
:10173000112380681B1A58425841704742688068DC
:10174000131A58425841704710B58168C268034661
:10175000545C08301A680121FFF7CCFF204610BD09
:1017600010B4C26844680346115504301A68012158
:101770005DF8044BFFF7BEBF2DE9F04104467AB196
:101780000D4601EB0208071D15F8016B6168E3685F
:1017900038465E5422680121FFF7ACFF4545F3D17E
:1017A000BDE8F081002383600260C1604360704740
:1017B00010B5164B164A1B68117A164803F00F0431
:1017C0000129046000D010BD13F002000AD113F00B
:1017D000080110D05468002CF5D0014603460822B9
:1017E000A04710BD5468002CEDD0002001460346F0
:1017F0000222A04710BD5B07E5D55468002CE2D05B
:10180000084603460422A047DDE700BF000002406F
:101810001C0000200400024010B5164B164A1B683D
:1018200092F82010154803F470640129046000D078
:1018300010BD13F400700AD113F4006110D0D46904
:10184000002CF5D0014603460822A04710BDD469FC
:10185000002CEDD00020014603460222A04710BD17
:101860005B05E5D5D469002CE2D008460346042286
:10187000A047DDE7000002401C00002004000240F9
:1018800010B5164B164A1B68117D164803F0F0047C
:101890000129046000D010BD13F020000AD113F01C
:1018A000800110D01469002CF5D0014603460822AF
:1018B000A04710BD1469002CEDD00020014603465E
:1018C0000222A04710BD5B06E5D51469002CE2D0CA
:1018D000084603460422A047DDE700BF000002409F
:1018E0001C0000200400024010B5164B164A1B686D
:1018F00092F82C10154803F470440129046000D0BC
:1019000010BD13F400500AD113F4004110D0946AB2
:10191000002CF5D0014603460822A04710BD946A6A
:10192000002CEDD00020014603460222A04710BD46
:101930005B04E5D5946A002CE2D0084603460422F5
:10194000A047DDE7000002401C0000200400024028
:1019500010B5164B164A1B6892F83810154803F458
:1019600070240129046000D010BD13F400300AD1A6
:1019700013F4002110D0546B002CF5D0014603461F
:101980000822A04710BD546B002CEDD0002001466A
:1019900003460222A04710BD5B03E5D5546B002C23
:1019A000E2D0084603460422A047DDE700000240DB
:1019B0001C0000200400024010B5164B164A1B689C
:1019C00092F84410154803F470040129046000D013
:1019D00010BD13F400100AD113F4000110D0146CE0
:1019E000002CF5D0014603460822A04710BD146C18
:1019F000002CEDD00020014603460222A04710BD76
:101A00005B02E5D5146C002CE2D0084603460422A4
:101A1000A047DDE7000002401C0000200400024057
:101A200010B5164B164A1B6892F85010154803F073
:101A300070640129046000D010BD13F000700AD159
:101A400013F0006110D0D46C002CF5D00146034691
:101A50000822A04710BDD46C002CEDD00020014618
:101A600003460222A04710BD5B01E5D5D46C002CD3
:101A7000E2D0084603460422A047DDE7000002400A
:101A80001C0000200400024010B5164B164A1B68CB
:101A9000117A164803F00F040129046000D010BD2C
:101AA00013F002000AD113F0080110D05468002C82
:101AB000F5D0014603460822A04710BD5468002C0B
:101AC000EDD00020014603460222A04710BD5B076F
:101AD000E5D55468002CE2D0084603460422A0470E
:101AE000DDE700BF000402401C00002004040240A7
:101AF00010B5164B164A1B68117D164803F0F0040A
:101B00000129046000D010BD13F020000AD113F0A9
:101B1000800110D01469002CF5D00146034608223C
:101B2000A04710BD1469002CEDD0002001460346EB
:101B30000222A04710BD5B06E5D51469002CE2D057
:101B4000084603460422A047DDE700BF0004024028
:101B50001C0000200404024010B5164B164A1B68F6
:101B600092F82010154803F470640129046000D035
:101B700010BD13F400700AD113F4006110D0D469C1
:101B8000002CF5D0014603460822A04710BDD469B9
:101B9000002CEDD00020014603460222A04710BDD4
:101BA0005B05E5D5D469002CE2D008460346042243
:101BB000A047DDE7000402401C00002004040240AE
:101BC00010B5164B164A1B6892F82C10154803F4F2
:101BD00070440129046000D010BD13F400500AD1F4
:101BE00013F4004110D0946A002CF5D0014603464E
:101BF0000822A04710BD946A002CEDD000200146B9
:101C000003460222A04710BD5B04E5D5946A002C70
:101C1000E2D0084603460422A047DDE70004024064
:101C20001C0000200404024010B5164B164A1B6825
:101C300092F83810154803F470240129046000D08C
:101C400010BD13F400300AD113F4002110D0546BEE
:101C5000002CF5D0014603460822A04710BD546B66
:101C6000002CEDD00020014603460222A04710BD03
:101C70005B03E5D5546B002CE2D0084603460422F2
:101C8000A047DDE7000402401C00002004040240DD
:101C9000034B53F820301A6842F001021A60704773
:101CA000781C0108034B53F820301A6822F0010217
:101CB0001A607047781C0108044B53F820301A68EA
:101CC00022F47E6211431960704700BF781C01083E
:101CD00010B4064C54F82000046824F00104046099
:101CE00081605DF8044BC26043607047781C010856
:101CF000062884BF00F18040A0F58060800081400C
:101D0000034B186808400B1A58425841704700BFEF
:101D100000000240062884BF00F18040A0F58060EA
:101D200080008140024B1A6811431960704700BF60
:101D300004000240044B53F820301A6822F4405249
:101D400011431960704700BF781C0108054A10B59F
:101D5000054B14681A681CB1002001460346A047D1
:101D600010BD00BF342D00200810024001387FF460
:101D7000FDAF704738B5C0F3044385B29D40074BB3
:101D8000000F53F82040102023682B432360FFF7F7
:101D9000EDFF236823EA0505256038BDA81C01086E
:101DA000C0F3044382B29A40044B000F03EB80005F
:101DB000C36819680A431A60704700BFA81C01086D
:101DC000104B98420AD0104B002101E0824206D00D
:101DD000DA6801310C33002AF8D1704700210B4A30
:101DE00001EB410102EB81010B6A98B2C3F304419C
:101DF00000FA01F11B0F02EB8302D3681A680A4351
:101E00001A60704700240140C41C0108A81C010886
:101E10000B4B98420AD00B4B002101E0824206D0C6
:101E2000DA6801310C33002AF8D170470021064BE3
:101E300001EB410103EB8101086AFFF79BBF00BF83
:101E400000240140C41C0108A81C0108F0B4A44BE4
:101E5000002582B001951C68A24A44F001041C6070
:101E60001768A14CA14E3C4014601C6824F0847497
:101E700024F480341C601F689D4C27F480271F6069
:101E80001768C1F3072327F4FE07176037681A1F86
:101E9000152A07F41F07974A376088BF082326686A
:101EA00025601360944B0B40012B2FD05AD3B3F114
:101EB000011F2BD00022914B914C1D68A04245F090
:101EC00020051D6042D81C6824F007041C601C68B3
:101ED0001C60844B90421C6824F47F5424F030042E
:101EE0001C6010D0824262D9B2FBF0F100FB1122DB
:101EF0004AB90823012202FA03F0084240F0E480C4
:101F000013F1FF33F7D202B0F0BC7047744B1C687A
:101F10001D4624F480341C601C6824F400341C60CA
:101F20001C6844F480341C6002E0002B40F0A9805F
:101F30002B68019CC3F3404301340194019CB4F528
:101F4000A06FF2D1002B40F09C80FEE76D4CA042C8
:101F500062D81C6824F007041C601C6844F001046B
:101F60001C60B6E75E4B1A681C4642F001021A601C
:101F700023689E07FCD55B4B1A681C4622F00302BF
:101F80001A601A681A60236813F00C0FFBD1CD0792
:101F900004D5534B1A6822F001021A60CC0148D5CF
:101FA0004F4B594A1C6844F080741C6083E7C90396
:101FB00041D5B0FBF2F102FB1104002C4FD11A689D
:101FC000023942F480321A601A68890422F47812C5
:101FD0001A601A6801F470110A431A60414B404AB2
:101FE000196818461960196841F480511960116820
:101FF00041F08071116012681A6822F003021A60C1
:102000001A6842F002021A60036803F00C03082BFE
:10201000FAD102B0F0BC70473C4CA0423FF659AF39
:102020001C6824F007041C601C6844F002041C6057
:102030004FE7354A3FE74000B0FBF2F102FB1102E7
:10204000002A7FF460AF1A68023922F474121A6011
:102050001A68890401F470110A431A60BEE740004F
:10206000B0FBF2F102FB1102002A7FF44CAF1A68B8
:10207000023942F440321A601A68890422F470125C
:10208000A6E7184B1C681D4624F003041C601C685E
:1020900044F001041C602B6803F00C03042BFAD1FC
:1020A00013681B4A02FB03F2CB0704D50C4B1C68D8
:1020B00024F001041C60CF017FF5FDAE084B1C68C5
:1020C00024F080741C60F6E61249064A0B4493F82B
:1020D000D811136843EA0113136002B0F0BC7047D3
:1020E00000100240041002400000FFF808100240F7
:1020F0002C100240B8000020030001000020024024
:1021000000366E01006CDC0200127A0000A24A0464
:1021100040420F00A81C0108014B024A1A60FEE76A
:102120000CED00E00400FA051B4B10B41A6802F035
:102130000C02042A24D0082A16D11A681B68C2F39C
:102140008342DB0302F1020220D5144B14481968C4
:10215000144C006804FB01F100F00F000130B1FBEA
:10216000F0F002FB00F001E00F480C4B0A4A5DF86A
:10217000044B1268C2F3031213441B79D840704712
:10218000064B08481A6800FB02F0EFE70748034BCC
:1021900000FB02F0EAE700BF04100240B800002094
:1021A0002C10024040420F0000127A0000093D004E
:1021B00008B5FFF7B9FF044B044A1B68C3F30223B9
:1021C00013441B79D84008BD04100240B800002019
:1021D00008B5FFF7A9FF044B044A1B68C3F3C223E9
:1021E00013441B79D84008BD04100240B8000020F9
:1021F00038B5204C23782BB3002502211E482570CA
:1022000001F0A0F82A46A06002211B4801F026F93F
:10221000A26863689A4211D8A2F5EE42473AD21AF0
:1022200092B2A281A289154B92B2A3FB0212A37BA8
:102230005209032BA28114D0002038BDD31A9BB2BF
:10224000A381EFE702210C4801F07CF802216060D5
:102250000A46094801F002F923780020013323706F
:1022600038BD054801F08CFA2D20FEF737FA002022
:1022700038BD00BF382D00200004004009CB3D8D43
:10228000014B988980B27047382D002070B5344DCD
:102290003448FFF785FD4FF480512846FEF766FF6E
:1022A000FFF77EFD80212846FEF760FFFFF778FDEF
:1022B00028464FF480510322FEF7F6FE28464FF4DD
:1022C00080510022FEF70EFF284680210822264C6E
:1022D000FEF7EAFE284680210022FEF703FF802158
:1022E000224A2846FEF708FF2046FFF769FDFFF760
:1022F0001BFF1F4D1F4B022128614122204601F088
:1023000077FA20460221002201F0A8F80122204697
:10231000022101F00DFA204648F6B80101F032FB27
:102320002B69154A2046A2FB03610022890C01F0AB
:102330002DFA2046114901F023F81E2220460221E1
:1023400001F00EF802212D20FEF7A6F82D20FEF751
:102350001BF9204601F00EFA0223AB7370BD00BFDB
:10236000001001400100001000040040000C00407B
:10237000382D002040420F0083DE1B43F12100086E
:10238000014B00229A737047382D00200369186CA6
:102390005B6CC01A00F03F00704700BF0369196C06
:1023A0005A6C91421ABF5A6C985C4FF0FF307047DC
:1023B0000369196C5A6C914207D0596C5A6C585C7D
:1023C000013202F03F025A6470474FF0FF3070470D
:1023D00010B50446237D13B90023237510BDA069F1
:1023E00001F08EFD0028F5D10023237510BD00BF3C
:1023F00008B5806901F0D4FC012008BD084B0948EC
:10240000094910B400224FF47A741C655A649B6524
:1024100098641966DA641A645DF8044B704700BF6B
:102420004C2D0020A01E01080044004001707047A0
:10243000F8B5124C05780F4620462946BF001646CF
:102440001D46FDF7ADFFB91D01F0FE012046FDF769
:10245000B5FFF1B22046FDF7B1FF310A2046FDF786
:10246000ADFFE9B22046FDF7A9FF2046290AFDF796
:10247000A5FF2046BDE8F840FDF7C0BFE4090020F5
:1024800070B50C4C05460E4620462978FDF788FFAE
:1024900031462046FDF792FF2046FDF7AFFF297831
:1024A00001222046FDF7C4FF2046FDF7C5FFC0B25C
:1024B00070BD00BFE409002070B50A4C03780D46DA
:1024C000204619461646FDF76BFF29462046FDF7C4
:1024D00075FF20463146FDF771FF2046BDE870408C
:1024E000FDF78CBFE409002010B504460448FDF751
:1024F00021FF002120460A46BDE81040FFF7DCBF5F
:10250000E409002000000000F8B50646084608F07F
:1025100073FD21A3D3E9002308F0C2FD09F0A2F85E
:1025200001461F4809F0B0FA4FF07E5109F0EEF86D
:1025300008F062FD1B4B002208F000FC08F098F840
:1025400004460D4630460021FFF79AFF00F06F0267
:10255000074642F0100230460021FFF7ADFF294642
:10256000204609F05FF8FE21C2B23046FFF7A4FF13
:102570003A4630460021FFF79FFF052000F04AFC55
:1025800067F05E023046D2B20021BDE8F840FFF7A6
:1025900093BF00BFAFF30080CDCCCCCCCCCCEC3F14
:1025A00020BCBE450000E03F0E4B10B51A68540633
:1025B0000AD50D4909681B680C4B1C681CB100202A
:1025C00001460346A04710BD900604D508491B6884
:1025D0000B680B60F0E7D106EED5196821F0100109
:1025E0001960E9E7083001400C300140B02D0020AF
:1025F000003001400E4B10B51A6854060AD50D493B
:1026000009681B680C4B5C681CB10020014603463E
:10261000A04710BD900603D5084B19681960F1E773
:10262000D106EFD5196821F010011960EAE700BF63
:10263000083800400C380040B02D00200038004021
:102640000E4B10B51A6854060AD50D4909681B6867
:102650000C4B9C681CB1002001460346A04710BDEE
:10266000900603D5084B19681960F1E7D106EFD53C
:10267000196821F010011960EAE700BF083C00402A
:102680000C3C0040B02D0020003C004038B52949EA
:10269000294B1A680C68196842EA0444274A24F056
:1026A0007F4421F45F41944219603BD0244B24F0D5
:1026B00002029A4211D004339C420ED0214B9C421C
:1026C00015D002339C4212D01F4B9C4219D03E338E
:1026D0009C4216D0102C1DD038BD1C4B00201D680C
:1026E000014603460246A847164B9C42E9D1174BC8
:1026F00000201D68014603460246A847124B9C4233
:10270000E5D1124B00201D68014602460346A8474A
:10271000102CE1D10D4B0020224601461C680346D7
:10272000A04738BD094B00201D6801460346012221
:10273000A847C9E718540040145400404000020064
:10274000800006008200070002000300BC2D00206C
:1027500038B5144A144B154C196812681A680020D1
:1027600022F45F421A606568014603460122A847C9
:1027700000206568014602460346A84700206568B8
:10278000014602460346A847002065680146024606
:102790000346A84700206468014603461022A0476C
:1027A00038BD00BF1858004014580040BC2D002010
:1027B00070B41E4C4568A4FB016425F03F054560DC
:1027C0004568A40C254345600568012A25F00105EC
:1027D000056011D0164B8909A3FB01618909032902
:1027E00004F1010498BF0421C1610462036870BC54
:1027F00043F00103036070479BB90E4BA3FB0161DB
:10280000890D41F480414FF4967303FB04F40A4BA5
:1028100041F40041A3FB0424A4090134C161046212
:10282000E4E7064BA3FB0121C90CECE783DE1B4365
:10283000632D3E056BCA5F6BD34D6210851DD96F4A
:10284000036823F002030360036843F0010303609D
:10285000704700BF2DE9F0019C4600F1180633686F
:102860009B07FCD40368044643F48073DFF874804C
:1028700044F8143B03E0236813F4706F07D1276812
:102880003368184D47EA03473D404545F3D14900B9
:10289000C9B2154B016101E09D4209D02568376836
:1028A000216845EA074511F4706F25F07F45F3D0A4
:1028B0000261BCF1000F11D00C4D01E0AA4209D019
:1028C00022683168236842EA014213F4706F22F0F3
:1028D0007F42F3D0036843F400730360BDE8F00166
:1028E000704700BF0100030082000700840007005A
:1028F0002DE9F04180461F460023FFF7ABFF08F1AA
:1029000018060D4B08F1140101E09D4209D00A6838
:1029100035680C6842EA054014F4706F20F07F457A
:10292000F3D02FB1D8F8003043F40073C8F800306A
:1029300000F4C060BDE8F08184000700F0B40161DC
:102940000D4F00F1140100F1180601E0BD4209D05D
:102950000B6835680C6843EA054314F4706F23F084
:102960007F45F3D01AB1026842F40072026003F4AA
:10297000C060F0BC704700BF840007002DE9F00F75
:10298000B2F101099B463ED0DFF890C000F1100A79
:1029900000F1140400F118074FF0000811F8085076
:1029A000CAF8005001E066450ED026683B682568ED
:1029B00046EA034615F4706F26F07F46F3D0C14611
:1029C0004846BDE8F00F704708F10108C845E5D159
:1029D00011F80810DFF844C0CAF8001025683E68F6
:1029E000216845EA064511F4706F25F07F45E7D16F
:1029F0006545F3D1BBF1000F0DD00368914643F458
:102A000000730360DCE700F1100A00F1140400F128
:102A10001807C846DCE79146D2E700BF84000700EC
:102A20002DE9F04F012B83B0019280468A469DF834
:102A3000309018BF00F1180743D03E6816F002002E
:102A4000FBD1D8F80010454641F48071DFF884B01E
:102A500045F8141B03E0296811F4706F25D129682B
:102A60003A681C4C41EA024C0CEA04045C45F2D181
:102A70004FEA4A0A5FFA8AF1C8F81010DFF858A046
:102A800003E0296811F4706F0FD12968D7F800C0EE
:102A9000114C41EA0C410C405445F2D1019A16F414
:102AA000E06F1178C8F8101002D003B0BDE8F08FC5
:102AB000019A4046511C5A1E4B46FFF75FFF0130FA
:102AC000F3E712784B46FFF713FFD0F1010038BF50
:102AD0000020EAE701000300820007002DE9F84327
:102AE00003688046044643F480732748914644F8BF
:102AF000143B08F1180703E0236813F4706F3CD10E
:102B000025683E68204B45EA06452B408342F3D1B9
:102B10004B0043F00103DBB2D8F81420C8F81030A2
:102B200023689B07FCD5D8F8003023F48063C8F8ED
:102B30000030FDF7ABFCD8F81830D8F8003043F47B
:102B40000073C8F80030FDF79BFC104803E02368D1
:102B500013F4706F11D1226839680C4B42EA0141BD
:102B60000B408342F3D1D8F8103089F80030D8F800
:102B7000003043F48063C8F80030D8F8140000F443
:102B8000E060BDE8F88300BF0100030040000300DF
:102B90002DE9F8435F1E4FF6FE76B7421C46054608
:102BA000884691469DF8203008D8012C68D0384BD3
:102BB000984262D003F58063984202D00020BDE8BD
:102BC000F883344F04260120FFF7EAF830464FF42B
:102BD0004051FFF7AFF84A462346304605F1100151
:102BE000FFF776F880213046FFF766F83B683046FD
:102BF00023F010033B60FFF74BF86B682A4643F461
:102C000080536B602B68244943F4807342F8143B73
:102C100005F11804106827681F4B40EA074003407D
:102C20008B42F7D14FEA480343F00103DBB21B4F5D
:102C30002B6111682068194B41EA00410B40BB42EF
:102C4000F7D16B6843F400636B6030460221FFF7F5
:102C50004FF80028F9D030460121FFF75BF86B6888
:102C6000304623F4C0536B60FFF71CF82B6800203C
:102C700043F400732B60BDE8F883094F0626A2E7F2
:102C8000FFF72CFFD0F1010038BF0020BDE8F8832A
:102C900000540040580002400100030002000300FD
:102CA00080000240F8B506460F4662B11446002582
:102CB000336830461B6817F8011B9847013C0544F0
:102CC000F6D12846F8BD1546FBE700BF08B50368F6
:102CD0001B68984708BD00BF2DE9F04792B09DF8EA
:102CE00068800021B8F1010F814614461D468DF819
:102CF000441024D95FFA88F600270DF1430A01E059
:102D000004460D46204632463B46294608F058FF09
:102D100008FB1044E4B2092C94BF30343734E4B2D9
:102D200050EA010253460AF80149E9D1D9F80020D6
:102D3000194648465368984712B0BDE8F0870A26FE
:102D400000274FF00A08D8E770B5049929B1C9B235
:102D50000491BDE87040FFF7BFBF0368D1B21B68A4
:102D6000984770BD00B583B000920023CAB2FFF748
:102D7000EBFF03B05DF804FB044A05491368002B20
:102D800008BF0B461844106018467047C42D002039
:102D9000B03900204FF0FF30704700BF4FF40053B0
:102DA0004B600020704700BF012070470020704733
:102DB0001046704710467047FEE700BF10B50C493B
:102DC00004460C48FFF742F842F21070FEF7CEFFBF
:102DD0000948FEF7E5FF094B4FF000721A60FDF756
:102DE0002FFD0748FDF734FDFDF722FD204610BDFD
:102DF0000108010000A24A04010000100400014083
:102E000040190100024B1A6C01321A64704700BF6E
:102E1000C82D0020064A136CDB4383429CBF00236D
:102E20001364136C1844136C9842FCD1704700BFB4
:102E3000C82D002000EBC0004000FEF797BF00BF88
:102E40000148FFF7BBBF00BF0C2E00200D4B10B593
:102E50001A68D00703D5196821F00101196091079C
:102E600004D5084B196821F00201196005490B6867
:102E70009B06FCD5044B1C6A1CB10020014603468E
:102E8000A04710BD04280040102E002010B51446A5
:102E9000620610D4A30601D4002010BD0E4B0F48CB
:102EA0001C68FEF73FFC0028F6D1E1B20B48FEF7A4
:102EB00057FC002010BD0A48FEF740FC28B908481E
:102EC000FEF742FC044B1860E4E706484FF040115F
:102ED00000F0ACFFDEE700BF04380140442E0020C4
:102EE000342E002000380140F8B5274D4FF4967479
:102EF00005F1200705F5A6762246384600210AF09E
:102F0000DDFE2246304600210AF0D8FE2846314632
:102F10002246FEF747FC1D4E3946224605F11000B9
:102F2000FEF740FC1A48FEF73BFF30464FF40071B5
:102F30004FF0C042FEF7E0F8164C30464FF4806187
:102F40004FF00052FEF7D8F81348FEF729FF002291
:102F500020464FF4E13100F0A1FE20460F4900F079
:102F6000A5FF3520FDF710FB20464FF0201100F0A3
:102F70001DFF41F28830FEF7F9FE204642F20C01B7
:102F8000BDE8F84000F004BF342E002000080140E6
:102F90000400001000380140004000108D2E000891
:102FA0000A4601460148FEF7E7BB00BF342E002069
:102FB00010B504460548FEF7B5FB0028FAD12146B6
:102FC0000248BDE81040FEF7CBBB00BF342E002006
:102FD00008B50548FEF7B2FB0028FAD10248BDE863
:102FE0000840FEF7B1BB00BF442E002010B5064CD0
:102FF0000021204600F0D4FE20464FF04011BDE8ED
:10300000104000F0D3BE00BF00380140074B084914
:103010001A68186810B50C6820EA0200186024B11C
:103020001AB1002003460221A04710BD102C014018
:10303000AC300020084B09481A68196810B502F036
:103040001E02446821EA0201196024B11AB100206D
:1030500003460221A04710BD10340140AC300020CF
:1030600030B4056A134C25F001050562856942EA12
:10307000031325F0F305A04243EA0505036A10D0C7
:1030800020F44062B2F1804F0BD00B4A904208D03E
:1030900023F00A0341F0010119438561016230BC4C
:1030A000704723F0020341F0010119438561016279
:1030B00030BC7047002C01400034014030B4046A39
:1030C0001B0324F0100404628569134C43EA0222B6
:1030D00025F47345A0424FEA011142EA0505036A4F
:1030E00010D020F44062B2F1804F0BD00B4A9042D6
:1030F00008D023F0A00341F010010B438561036267
:1031000030BC704723F0200341F010010B43856170
:10311000036230BC704700BF002C01400034014006
:103120000B4B10B51B681A050AD50A4B1A68130613
:1031300006D5094B00201C6801460346A04710BD78
:10314000054B00201C6C014602460346A04710BDFB
:1031500018100240102C0140DC3000200B4B10B541
:103160001B681A050AD50A4B1A68D30706D5094BFE
:1031700000205C6801460346A04710BD054B0020B7
:103180005C6C014602460346A04710BD1810024081
:10319000102C0140DC300020104B10B51B681A05C4
:1031A00013D50F4B1A6812F0400007D193060CD5C7
:1031B0000C4C01460346E468A04710BD094B0020B3
:1031C0009C6801460346A04710BD064B00209C6C3E
:1031D000014602460346A04710BD00BF181002403A
:1031E000102C0140DC30002010B5044B044A0020B4
:1031F0005C69126801460346A04710BDDC30002020
:103200001000004010B5044B044A00209C6912686D
:1032100001460346A04710BDDC30002010040040EA
:1032200010B5044B044A0020DC69126801460346CD
:10323000A04710BDDC3000201008004010B5044B42
:10324000044A00201C6A126801460346A04710BDCC
:10325000DC300020100C004010B5044B044A002064
:103260005C6A126801460346A04710BDDC300020AE
:103270001010004010B5044B044A00209C6A1268EC
:1032800001460346A04710BDDC300020101400406A
:103290000B4B10B51B689A040AD50A4B1A68D30762
:1032A00006D5094B0020DC6A01460346A04710BD45
:1032B000054B0020DC6C014602460346A04710BDCA
:1032C0001810024010340140DC3000200B4B10B5C8
:1032D0001B689A040AD50A4B1A68D30706D5094B0E
:1032E00000201C6B01460346A04710BD054B002083
:1032F0001C6D014602460346A04710BD181002404F
:1033000010340140DC3000200B4B10B51B689A04D0
:1033100003D50A4B1A68D30707D4094B00205C6D0C
:10332000014602460346A04710BD054B00205C6BDA
:1033300001460346A04710BD18100240103401405A
:10334000DC300020012906D0022906D003290CBF59
:10335000C06B006C7047406B7047806B704700BF5C
:10336000012A08D00223013903FA01F1C3680A4097
:103370001A43C2607047C36843F00103C3607047DB
:10338000314B984258D012D9304B984239D021D87D
:10339000A3F58A3398422BD003F58633984247D061
:1033A000A3F58833984225D1294B19657047A3F5B9
:1033B0008053984233D028D9264B98421BD003F52E
:1033C0008063984231D0A3F50063984212D1204B1C
:1033D00019627047204B984210D003F580639842E1
:1033E0002DD0A3F50063984204D1194B196470479E
:1033F000174B59657047164B59627047144B596407
:103400007047134B1963D9637047B0F1804F09D0EF
:10341000A3F58063984215D10D4B996170470C4B11
:10342000D96170470A4B59617047094B99627047DF
:10343000074B596019617047054BD9647047044BBD
:1034400099647047704700BF001800400034014085
:10345000DC300020001000400050014001F18041AC
:103460000139890001238B4010B402248C408A402A
:10347000016A21EA03010162016A21EA040404628B
:10348000016A5DF8044B0A430262026A1343036255
:10349000704700BFF0B4046A164E24F001040462C1
:1034A000076A4468856903F0030325F0730C27F06D
:1034B0000207B04243EA07034CEA0101049D09D028
:1034C00006F50066B04205D044608161F0BC4263FD
:1034D00003627047059F05F0080623F00C03334391
:1034E00024F4407405F0040507F440762B4334437C
:1034F000EAE700BF002C0140F0B4046A184D24F044
:1035000010040462076A446886691B0103F0300CEA
:1035100027F0200726F4E646A8424CEA070346EACD
:10352000012109D005F50065A84205D044608161FC
:10353000F0BC826303627047049EDDF814C035015D
:1035400005F0800723F0C0034FEA8C0624F4606482
:103550003B4305F0400506F460662B433443E5E742
:10356000002C0140F0B4046A184D24F48074046205
:10357000076A4468C6691B0203F4407C27F400779D
:1035800026F07306A8424CEA070346EA010109D077
:1035900005F50065A84205D04460C161F0BCC26376
:1035A00003627047049EDDF814C0350205F400671D
:1035B00023F440634FEA0C1624F440543B4305F4D3
:1035C000806506F440562B433443E5E7002C014068
:1035D000F0B4046A124D24F480540462076A44680B
:1035E000C6691B0303F4005C27F4005726F4E64683
:1035F000A84247EA0C0346EA012109D005F5006517
:10360000A84205D04460C161F0BC02640362704707
:10361000059E24F48044B50105F480452C43F1E770
:10362000002C0140012938B504465FD002296BD037
:1036300003292BD0016A059D21F4805121622801C4
:103640003949E56940EA032325F0F3058C424FEA46
:10365000023243EA0503206A07D024F44061B1F145
:10366000804F02D031498C4204D120F4005042F402
:1036700080521043E3612062E369049A23F44063BB
:10368000E361E36943EA0223E36138BD006A264946
:1036900020F480702062E069059D20F0F30043EA89
:1036A00005138C4243EA00034FEA0222206A0DD040
:1036B00024F44061B1F1804F08D01C498C4205D000
:1036C00020F4206042F48072024304E020F4007091
:1036D00042F480720243E3612262E369049A23F0B8
:1036E0000C03E361E3691343E36138BD11461A46F5
:1036F000059BFFF7B5FCA369049A23F00C03A361B3
:10370000A3691343A36138BD11461A46059BFFF711
:10371000D5FCA369049D23F44063A361A36943EA34
:103720000523A36138BD00BF002C014000340140D7
:1037300010B502F00F0282B0022A4FF000020446D8
:10374000009201924FF0010307D0FFF76BFFA368CF
:1037500023F00703A36002B010BDFFF763FFA36867
:1037600023F00703A360A36843F00403A36002B03F
:1037700010BD00BF036843F001030360704700BF42
:10378000036823F001030360704700BF8162426158
:10379000704700BF01F18043013B30B49B0001241E
:1037A00004FA03F3056A21F0020425EA0303012C5D
:1037B00003620CD030BC21F003010844836923F478
:1037C000E0438361836943EA022282617047074BC9
:1037D000A3FB014130BC490800EB8100836923F061
:1037E0007003836183691A4382617047ABAAAAAAF6
:1037F0002DE9F04F604C83B0A04282468B46914643
:10380000984616D05D4B984213D003F5C0539842AA
:103810000FD003F5806320F480629A4209D0FEF74E
:10382000C7FC574A1268C2F30222012A09D140009C
:1038300007E0FEF7CDFC524A1268C2F3C222012A09
:10384000F5D0444601254FF6FC7C4FF6FF7202E0AE
:103850000135954205D0B0FBF4F6B71E67454444E8
:10386000F6D809F0F00120296CD057D9302934D08E
:10387000402911D1DAF80030002223F00803CAF8F9
:103880000030DAF800305946CAF80030504600924D
:1038900001920123FFF7C6FEDAF8003009F00F09A4
:1038A00023F07003CAF80030DAF80030B9F1010FE4
:1038B00018BF43F01003CAF80030DAF800200023E4
:1038C00042F08002CAF80020CAF82C60CAF82850DA
:1038D000CAF8143003B0BDE8F08FDAF800304FF4C6
:1038E000806223F00803CAF80030DAF80030BBF138
:1038F000010FCAF800304FF000038DE80C0050466D
:103900004FEA56024FF480732CD0BBF1020F2FD038
:10391000BBF1030F29D0FFF75BFEBDE71029BBD138
:10392000DAF80030594623F00803CAF80030DAF814
:103930000030504643F00803CAF800300022FFF779
:1039400029FFA9E7DAF80030594623F00803CAF83E
:103950000030DAF800305046CAF800300022FFF795
:1039600019FF99E7FFF796FD96E7FFF7FBFD93E751
:10397000FFF7C2FD90E700BF002C0140003401407A
:1039800004100240C1627047014B024A1A6070473E
:10399000343100200030014010B50368044623F0A4
:1039A0007F4323F0FF03B3F5804F01D0002010BD0B
:1039B000C378053B032B29D8DFE803F0121B08026C
:1039C0008368187850BBFDF743F819E081680878E0
:1039D0004A788B78D1F80310F0B9FDF7A3F9E5E741
:1039E000FCF7EAFF0E49012300220B7023702273BB
:1039F000DCE783681878D3F8011058B9FCF734FF76
:103A00000122002322702373002010BD00230370C5
:103A10000373CBE70120F1E70120DEE70120D2E7C5
:103A20004831002070B5036882B023F07F4323F053
:103A3000FF030025B3F5103F0446ADF8065002D051
:103A4000002002B070BDC678022E0CD0032E04D028
:103A5000012E14D005700573F2E7FEF791FC0123E7
:103A600025732370ECE7FEF70BFC2369C0F30721F5
:103A7000187023690122597026732270E0E7FEF75F
:103A800005FC26702573DBE738B5C378022B10D010
:103A9000032B1ED01049542300220469551CA35443
:103AA00011F8013FEAB2002BF7D103700273002036
:103AB00038BD0A49532300220469551CA35411F848
:103AC000013FEAB2002BF7D10123027303700020FB
:103AD00038BDFEF721FBEAE7201F0108081F010897
:103AE00070B5036884B023F07F4323F0FF03002404
:103AF000B3F5882F064601940294ADF80C4002D02D
:103B0000002004B070BDC578022D0CD0032D06D066
:103B1000012D42D000203470347304B070BD0123F5
:103B200004730370ECE72648FDF7EAFB0128F1D0A7
:103B300002A80DF10A0103AAFDF726FC0128E9D02D
:103B4000BDF9080007F046FA0446BDF90A000D4623
:103B500007F040FA02460B462046294606F040FE92
:103B600015A3D3E9002307F09BFA0022154B07F0B9
:103B7000E5F807F057FD3369C0F307211870336982
:103B8000C0F3074259703369000E9A7033690121FE
:103B90000422D87031703273B2E70B48FEF738F95F
:103BA00040F6FF70FEF7E2F8FDF730FB0128B1D0D8
:103BB00035703473A4E700BF775AF01ADCA54C4087
:103BC000700C20710080664000580040AFF3008008
:103BD00009F076BC074B08491A68186810B50C68DC
:103BE00020EA020018601CB1002001460346A047ED
:103BF00010BD00BF003801404C310020074B084881
:103C00001A68196810B5446821EA020119601CB1EC
:103C1000002001460346A04710BD00BF00440040FD
:103C20004C310020074B08481A68196810B58468A1
:103C300021EA020119601CB1002001460346A04799
:103C400010BD00BF004800404C310020074B084821
:103C50001A68196810B5C46821EA020119601CB11C
:103C6000002001460346A04710BD00BF004C0040A5
:103C70004C310020074B08481A68196810B50469D0
:103C800021EA020119601CB1002001460346A04749
:103C900010BD00BF005000404C310020F8B5304B43
:103CA000044698420F4616463AD02E4B98424FD0C3
:103CB0002D4B984250D02D4B98420CBF2C482D488C
:103CC000FEF758F8226906F4405322F4405222616C
:103CD0002361E36806F4B05623F4B05323F00C03D9
:103CE000E360E660FEF764FA04F10C0500EB800087
:103CF00000EB8000204ABF00B0FBF7F1A2FB0103FC
:103D000064205B0903FB101109013231A2FB01029F
:103D1000C2F3431242EA03132A682A68A360F8BD7B
:103D20001648FEF727F8164B164D196806F4405250
:103D300021F4405119601A602B6806F4B05623F440
:103D4000B05323F00C032B602E60FEF741FACDE751
:103D50000D48FEF70FF8B5E70C48FEF70BF8B1E792
:103D6000003801400044004000480040004C004042
:103D700008001020100010201F85EB51004000109B
:103D8000103801400C3801400200102004001020BF
:103D9000C36842F20C0211400B43C360704700BF7E
:103DA00003681B06FCD54160704700BFB1F1401F9E
:103DB0001DD01B4B99421FD0B1F1801F21D0B1F112
:103DC000201F0FD0B1F1101F20D0164B994222D0E6
:103DD000154B994243690CBF43F0010343F48063E0
:103DE00043617047C36843F02003C3607047C368F2
:103DF00043F04003C3607047C36843F48073C360FB
:103E00007047C36843F08003C3607047C36843F0E2
:103E10001003C3607047036943F0400303617047B8
:103E2000000101002010000101200E00B1F1401F2F
:103E30001DD01B4B99421FD0B1F1801F21D0B1F191
:103E4000201F0FD0B1F1101F20D0164B994222D065
:103E5000154B994243690CBF23F0010323F480639F
:103E600043617047C36823F02003C3607047C36891
:103E700023F04003C3607047C36823F48073C360BA
:103E80007047C36823F08003C3607047C36823F0A2
:103E90001003C3607047036923F040030361704758
:103EA000000101002010000101200E00114B98427A
:103EB0001CD00AD8A3F50063984214D003F58063A0
:103EC00098420FD10C4B996070470C4B984206D02A
:103ED00003F56843984204D1074B19607047064BBD
:103EE000196170477047044B59607047024BD960A5
:103EF000704700BF004C00404C3100200050004093
:103F0000006880F04000C0F3801070471EB400F0DD
:103F10008BF81EBC08F03CFCF0B5027883B0472A51
:103F20000D461E461AD00023244C019322682046D9
:103F30009368984780B1019B02271B6801932A6808
:103F4000214628461469012301AAA04710B1019B0C
:103F50003846336003B0F0BD0127F0E743784E2BBD
:103F6000E1D18378552BDED1C378432BDBD10379A4
:103F7000462B16D00379432BD5D143792B2BD2D1A5
:103F800083792B2BCFD1C379012BCCD804D050F817
:103F9000204C58300190C9E750F8200C50F8784C6C
:103FA000F8E743794F2BE5D18379522BE2D1C379DE
:103FB000002BDFD10193024CB8E700BFD4200108E9
:103FC0006820010810B5044600F080FC2378A4F1B5
:103FD0002002472B04D0836823BB8260012010BDE0
:103FE00063784E2BF7D1A378552BF4D1E378432B8C
:103FF000F1D12379432BEED163792B2BEBD1A3792C
:104000002B2BE8D1E379012BE5D854F8043C01339C
:10401000012B44F8043CE1D1836844F8083C8260F9
:10402000012010BD00F03AFC08B500F04FFC836899
:1040300083B393F82020472A04D00022826003F142
:10404000200008BD93F821204E2AF6D193F82220B3
:10405000552AF2D193F82320432AEED193F8242055
:10406000432AEAD193F825202B2AE6D193F826207B
:104070002B2AE2D193F82720012ADED8DA69013A07
:10408000DA61002ADBD19A6900218260996103F12B
:10409000200008BD00F002FCF0B5036885B00024E4
:1040A000102715469E6912686B4600948DF80440EF
:1040B00003940297B0479DF8043003F00603062BE3
:1040C00005BF009B012020462B6005B0F0BD00BF5E
:1040D0000098904214BF01200620704710B5034B92
:1040E0000446036000F082FC204610BD581F010802
:1040F00010B5054B0446036000F078FC2046FFF73E
:1041000067FD204610BD00BF581F010838B5154691
:104110001C4600F081FC20B1082206232560E260E5
:10412000237138BDF8B516461C4607460D4600F00B
:1041300073FC08B9032C00D9F8BD2B683946324608
:104140005B6928469847F8BDF0B583B0089C0A9D86
:104150001746AC4206460CD03046194600F05CFCCF
:1041600020B10B9A0123146017719371002003B0E2
:10417000F0BD0999019300F04FFC019B0028EBD0A2
:104180000B9B5F71F2E700BF10B5034B0446036061
:10419000FFF7A4FF204610BDB81F010810B5054B5E
:1041A00004460360FFF79AFF2046FFF711FD204603
:1041B00010BD00BFB81F010870B584B0089C0D4643
:1041C0009442064607D0B0682946056800942C6AD8
:1041D000A04704B070BD19460392029300F01CFC86
:1041E000039A029B0028EED00620F2E72DE9F04F5B
:1041F000884685B019461F46924683460E9EDDF8D6
:104200004090119D00F008FC044698B1B8F1000FF1
:104210002E6085F804A022DB46440024B14514BF7B
:104220004FF001094FF00609204685F8069005B0C9
:10423000BDE8F08F4E4517D0DBF808000F9B0468EF
:1042400001930096CDF808900395E46941465246E3
:104250003B46A0470446204605B0BDE8F08F18F164
:10426000020F0AD00024F6E758460F9900F0D4FB5D
:104270000028E1D085F805A0EDE70123AB7100240B
:10428000E9E700BFF8B507460E4615461C46FFF79E
:104290003DFF30B9B8683146066823462A46B469FE
:1042A000A047F8BD30B40024234610F8012B02F0DB
:1042B0007F059D402C43150603F10703F5D41F2B02
:1042C00006D8520604D54FF0FF3202FA03F31C431E
:1042D0000C6030BC704700BF2DE9F041502884B01D
:1042E0000746884646D000F00F010C2940D8DFE889
:1042F00001F0072C3B07193F3F3F3F211D071900E5
:10430000164656F8044B44B107F07001102908BF57
:10431000904644443A0648BF246830461C6004B0C6
:10432000BDE8F081146802F10806ECE7164636F99C
:10433000024BE8E7104603A901920093FFF7B2FF92
:10434000039C0646019A009BDDE70024254616469D
:1043500016F8011B01F07F00A840090644EA00049A
:1043600005F10705F4D4CEE7164636F8024BCAE746
:10437000FEF722FDD61C26F0030656F8044B304605
:104380001C6004B0BDE8F081FF2808B50FD000F034
:104390007003202B18D00CD9402B10D0502B06D0F6
:1043A000302B0AD1BDE80840084608F0CFBB0020FA
:1043B00008BD002BFBD0102BF9D0FEF7FDFC084602
:1043C000BDE8084008F0B2BB0846BDE8084008F068
:1043D000C1BB00BFF8B50C461646074608B108F049
:1043E000A5FB306025780134FF2D33D039462846AF
:1043F000FFF7CAFF22460146331D2846FFF76CFF30
:1044000004462378601CFF2B337529D0102300222B
:104410003375134610F8011B01F07F049C40090618
:1044200042EA040203F10703F4D40244F260037881
:10443000002473750130234610F8011B01F07F053D
:104440009D400A0644EA050403F10703F4D404443A
:104450003461F8BD70602378601CFF2B3375D5D1B3
:104460000023F360E3E700BF2DE9F04F00F0030302
:1044700093B00025012B0E461446069500F0A68049
:104480000ED3022B0AD13046214608F03BFB002810
:1044900000F0A480092013B0BDE8F08FFEF78CFC7B
:1044A00000F008005FFA80F84FF0010912AB43F802
:1044B0002C6D002100930C220B46204607F0D6FD00
:1044C000204608F039FB07460028DCD00CAA394604
:1044D00020460392FFF77EFF214683469DF8440065
:1044E000FFF752FF0BAD00210E900B460F220095F7
:1044F000204607F093FD0B9A109B22F001029B458A
:1045000048EA090802F1FF3939D29DF845A0002197
:104510005046FFF739FF5A46014609AB5046FFF7B0
:10452000DBFE9DF845A0834600215046FFF72CFF97
:104530005A4601460AAB5046FFF7CEFE9DF845A00D
:10454000834600215046FFF71FFF5A4601462B467F
:104550005046FFF7C1FE002183460B461BF801EBD6
:104560000EF07F029A401EF0800F41EA020103F133
:104570000703F3D1099A0C9B134499451DD24FF0C0
:1045800000094FF0010B002518F0010F4CD0BBF1D2
:10459000020F3FF478AF0AAB0021204600930D22B2
:1045A0000B46069C07F03AFD0A9B7462B562F762FF
:1045B000C6F83090336206206DE70A9A1344994595
:1045C000C0F09280109B9B459FD3D8E700F0080075
:1045D00000F0FF0830B14FF0020967E7082013B080
:1045E000BDE8F08F0CA90091039110464346414667
:1045F0000D22356A07F012FD0C9B9D42EBD112ABE8
:1046000043F82C6D00934146434620460C2206F1A8
:10461000280507F02BFD95E8A002B9F1000F00F086
:1046200017814FF0030B3DE018F0080F36D0BBF1B7
:10463000010F00F01C81002DC0F2158112AB00218A
:1046400043F8286D0A46009320460B4607F00EFDFE
:1046500012AB43F8245D0021009320460B46012253
:1046600007F004FD0AAD00210B4620460F220095FD
:1046700007F0D4FC0A9B002103F0010320460095BB
:1046800049EA03040F220B460A9407F0EFFCBBF142
:10469000020F36D0072013B0BDE8F08FBBF1010F39
:1046A00000F0D680002DC9DA3946039A2046FFF77C
:1046B00091FE9DF844002146FFF766FEAA000F9F79
:1046C00082F00302D2430E90BB58174433B13A46EE
:1046D000002352F8041F01330029FAD10422B362E7
:1046E000F06277633263A9E70B9B7BB10D9A03EB12
:1046F000020969B9B9F1000F3FF4C5AE4FF0020BE2
:1047000041E73046FFF75EFC0720C4E69946F0E734
:10471000109B01395818B9F1000F3FF4B4AE0028CE
:10472000ECD018F0080305937ED047224E23552184
:104730003270737043224623B170F2704F215222BF
:10474000337100237171B271F3714FF0000B049457
:1047500008A9FFF7A7FD09A98246FFF7A3FD089B5B
:10476000002B2FD031DD9DF84400FF285AD000F0F7
:104770000702042A3FF692AE01A151F822F000BFD1
:10478000BF4700089D440008B9470008BF4700081C
:1047900095470008DB005B420F9A0E991A440AAB5A
:1047A000FFF79AFD0A99F9B1002E54D1099B002B0D
:1047B00045D00AEB0300CBE75B005B42ECE79B00D4
:1047C0005B42E9E74FF0010BF0E701330EB1059AC8
:1047D0007AB10F9AC3EB837352F82330D3F10103FC
:1047E00038BF0023002BE1D0049C089D4FF0030B41
:1047F000CAE60F9AC3EB837352F82310069802EBB4
:1048000083030B901C4619B917E054F8041FA1B19B
:104810002144304600222B46FFF77EFB0028F4D0CF
:104820000023DFE70023B7E7F379012B0CBF56F82D
:10483000203C06F15803069387E70123D2E7049C46
:10484000BBF1000F3FF41FAE1D464FF0020B9BE67D
:10485000304600F041F93046002206ABFFF75CFB22
:104860000028C1D1A2E700F025F800F033F800F0ED
:1048700015F800BF08B58047FEF79EFA00F02AF849
:10488000FEF79AFA0C46054600F06AF8013401D0AA
:10489000FFF73CFB284600F02FF900BF08B5024B9C
:1048A0001868FFF7E7FF00BFD400002008B5804775
:1048B000FFF7F4FF08B5024B1868FFF7F7FF00BFDA
:1048C000D000002000487047603100200048704749
:1048D0006031002038B50446FFF7F8FF21780368FF
:1048E0004729A4F1200205D0002B31D11C460260DB
:1048F000204638BD61784E29F6D1A1785529F3D1EB
:10490000E1784329F0D121794329EDD161792B292F
:10491000EAD1A1792B29E7D1E1790129E4D854F82A
:104920000C5C002D11DB013541689A4201F1FF3129
:1049300044F80C5C41601CBF44F8103C0260204607
:10494000646A07F061FB204638BDC5F10105EBE75D
:10495000FFF7A4FF013101D0FFF7D8FA00F0CCF83F
:1049600008B5FFF7AFFF0246006800283DD090F879
:104970002010472906D0BDE80840002120301160F2
:1049800007F044BB90F821104E29F4D190F8221082
:104990005529F0D190F823104329ECD190F8241038
:1049A0004329E8D190F825102B29E4D190F826105E
:1049B0002B29E0D190F827100129DCD84169002982
:1049C00005DB013908D04B1C0DD0416108BD013118
:1049D000FBD103691360F8E70169BDE808402030A6
:1049E000116007F013BBFFF759FF08BD014B0360CF
:1049F000704700BF38200108002070470020704732
:104A00000020704710B5034B04460360FFF7E0F841
:104A1000204610BD38200108814208B511D04068F9
:104A200003782A2B0BD049680B782A2B08BF013159
:104A300009F0DEFBD0F1010038BF002008BD0020E6
:104A400008BD012008BD00BFFFF7E6BF014B0360B2
:104A5000704700BF58200108014B0360704700BF3A
:104A600058200108004870478C2001080048704712
:104A70009C20010810B5034B04460360FFF7A8F81B
:104A8000204610BD5820010810B5034B04460360B2
:104A9000FFF79EF8204610BD582001080378472BE9
:104AA00001D00020704743784E2BFAD18378552BE4
:104AB000F7D1C378432BF4D10379432BF1D1437958
:104AC0002B2BEED183792B2BEBD1C07901288CBF16
:104AD00000200120704700BF10B5044628B1FFF741
:104AE000F9FE2046FFF7DAFF08B9FFF7D7FE54F8C2
:104AF000140CFFF7BFFE00BF2DE9F04F83B0044652
:104B0000FFF7CCFF68B154F8185C204654F8146CD9
:104B1000A76AD4F83080646BFFF7DCFE2846FFF705
:104B2000C5FE2046FFF7D6FEFFF7C4FEFFF7D2FE14
:104B3000FFF7B4FEFFF7CEFEFFF7C4FE036893F85D
:104B40002720012A25D003F178020025019228F0C0
:104B5000030803F1200BAA46BA4526DA236813B3EB
:104B600003EB040958464946002201ABFFF7D4F98C
:104B7000024680B9D9F800304846D3F810C0114930
:104B80000123E047002818BF01250AF1010A444427
:104B9000E2E71A68D9E700F00FF9FFF7E1FEFFF747
:104BA000DFFEFFF7B3F99946DCE745B1042000F0DA
:104BB00049F9054B03490360044A00F0B5F8304653
:104BC000FFF758FE28210108E8200108594A00088B
:104BD00070B53D4B82B01A78002A36D101241C7082
:104BE00000F022F900285CD04068002103784FF0E3
:104BF000FF322A2B0CBF0519054602AB43F8042DE2
:104C000028460A4605F0C4FC304C06462368304866
:104C1000DB680121302208F039FC019B7BB123685D
:104C20002846D96808F06EFA23682A48DB68012113
:104C3000022208F02BFC019B8BB100F0BDF8236829
:104C40003046D96808F05EFAEEE7204B01211B6878
:104C50001D22DB68204808F019FCFEF7ADF830464D
:104C600008F02EFCE9E701290D4627D1FFF732FEB7
:104C700003689B689847236806462946DB681748FF
:104C80000B2208F003FC23683046D96808F03AFA92
:104C900023680A20D96808F0FBF9FFF761FEFEF7E8
:104CA0008BF80A4B21461B682D22DB680C4808F064
:104CB000EDFBF4E7FFF754FEFFF728F9FFF70AFED4
:104CC000FFF74EFEEBE700BF6C310020000500202F
:104CD000542101088821010834210108BC21010860
:104CE0008C210108012810B51AD8A1F12803BFF3BF
:104CF0005F8F53E8002F013A43E800200028F8D1E5
:104D0000BFF35F8F5AB951F81C3C01F158040BB145
:104D1000204698472046BDE8104000F0BFB810BDBF
:104D200051F8140CFFF7A6FD2DE9F84F04460F4685
:104D30009046FFF7CBFD034659681C481C4AD0F843
:104D400000A04E1C10681B4A5E604FF04E0C2B23D7
:104D50004FF0550E0021A4F1580543264FF0010BEA
:104D60004FF0470944F86C0C04F857CC04F856ECA3
:104D700004F8511C44F8502C04F8533C04F8523CFD
:104D800044F8787C44F8748C44F880BC44F870ACE7
:104D900004F8589C284604F8556C04F8546C07F045
:104DA000E5FC2846FFF796FDFFF778FDD0000020D0
:104DB000D4000020E54C000810B5FFF787FD4268DD
:104DC0000368013242606BB193F82020472A0BD070
:104DD0000022026003F12004204607F0EBFC20468D
:104DE000FFF778FDFFF75AFD93F821204E2AEFD107
:104DF00093F82220552AEBD193F82320432AE7D1B8
:104E000093F82420432AE3D193F825202B2ADFD1DD
:104E100093F826202B2ADBD193F82720012AD7D814
:104E20005A6952425A61D5E708B5FFF74FFD00684D
:104E300030B190F82730012B04BF00687838006843
:104E400008BD00BF38B500F18005284608F030FBEA
:104E5000044638B120460021802208F02FFF04F1DB
:104E6000800038BD0B4AB5F5007F116807D80B46A6
:104E7000D80706D50134042C4FEA5303F8D1FFF7C5
:104E80000DFD0120A040044B0143116003EB4424BD
:104E9000E0E700BF70310020783100200A4B9842D3
:104EA00003D303F50062904202D3803808F008BBB8
:104EB000C31A01215B0A01FA03F3044A116821EACB
:104EC00003011160704700BF78310020703100206D
:104ED00070B44C1E4A2C2CD8DFE804F03C3C3C3C1F
:104EE0002B2B2B2B26263C26262626262626262638
:104EF0002626262B27272727272727273C2626262F
:104F000026262B26273D3C2B3C27273D2B2B2626D0
:104F10003C3C3C3C3C263C3C263C2B2B2626262B72
:104F20002B2B2626263C3C00CAB144698569AC423D
:104F300002DB002070BC704704EB440506690134B5
:104F4000AD00446174190CD071556260A3602046B5
:104F500070BC70471AB1002BE7D11846EAE710463B
:104F6000E8E72046E6E700BF30B443698469A3421E
:104F700009DA03EB430405690133A40043612B19EB
:104F800001D001B112B9002030BC70470020285573
:104F900059609A60184630BC704700BF2DE9F04157
:104FA000C5680446884617462B780E4617E0562BF0
:104FB00022D04B2B2DD1236B0135002F03F106039B
:104FC000E56023630CBF1B211E21002213462046EF
:104FD000FFF77EFF3060D0B1E568061D2B78722B9D
:104FE000E5D1236B0135002F03F10903E56023634D
:104FF0000CBF19211C21E8E7236B0135002F03F1B9
:105000000903E56023630CBF1A211D21DDE7BDE81C
:10501000F081BFB9462B15D1464513D01D241E2063
:105020001C2108E01B2A10D0192A00D1197003F1A5
:105030000408464506D0D8F800301A781A2AF1D16B
:105040001C70F4E73046BDE8F0811870EFE700BF50
:1050500010B4C4680A462378522B10D04F2B03D0CB
:1050600008465DF8044B7047036B2021033303634C
:105070000134C46000235DF8044BFFF729BF036BC4
:105080001F2102330363F3E72DE9F041D0F80CE070
:1050900080469EF800400F462E2C29D073462E2CB9
:1050A00014D15C78303C092C10D89C78981CA4F161
:1050B0003002092A1AD8DD1C2C782B46A4F13006C0
:1050C000092E05F10105F7D92E2CEAD0CEEB03020B
:1050D0007146C8F80C304046FFF746FF3A46034693
:1050E0004B214046BDE8F041FFF7F2BE0346D6E74C
:1050F0009EF80130A3F16102192A0CD80EF10202C8
:1051000014781346A4F16101192902F10102F7D9BB
:105110005F2CF5D0C3E75F2BC0D1EFE72DE9F0039B
:10512000C2681378532B03D00020BDE8F00370470A
:10513000531CC3605378ABB1931CC36053785F2B8F
:1051400052D10024036A9C42EED2836AC2690133C1
:10515000836252F82400BDE8F0037047A3F14102D6
:10516000192A46D9826812076AD400296AD13F4AAF
:1051700002F1C40502E01C32AA42D5D014789C4248
:10518000F9D15569002D6AD043698469D2F8188035
:10519000A34262DA03EB4307D0F810C0BF0001332B
:1051A0001CEB070643615FD04FF018090CF807901D
:1051B00037467560C6F80880C76200294AD0D568AE
:1051C0001269016BA34211440163ADDA03EB4301A1
:1051D0000469013389004361631843D01820605487
:1051E00018465D609A60A0E7A3F13005EAB2092A8B
:1051F000B4D8002212E002EBC20403EB8403A3F153
:105200003004A24290D8C16822460B784D1C1BB1D5
:10521000C5600B785F2B11D0A3F13005E9B2A3F183
:1052200041040929E4B2E6D9192C3FF67DAF02EB1F
:10523000C20403EB8403A3F13704E2E7013481E7FE
:10524000012194E7C2681178433901298CBF0021FC
:1052500001218CE755689268B3E70027ACE78469C1
:105260004369AAE7184660E73746A5E7C821010861
:10527000D0F8003170B5FF2B04460D4606D05A1CFD
:10528000C4F80021E55484F8045170BD0026194685
:10529000D0F80C21D0F8083180F8FF609847D4F896
:1052A000202133460132C4F820210122C4F8002114
:1052B000E55484F8045170BD30B402680446137894
:1052C0006E2B18D00025A3F13002092A18D82268C5
:1052D0000020013200EB8001226003EB410112F853
:1052E000013BA1F13000A3F130010929F2D905B148
:1052F000404230BC7047531C036053780125E2E7FD
:105300000020F4E74369826910B5934213DA03EB96
:1053100043020169920001338C18436108D0402395
:105320008B540C30FFF7C8FF23466060184610BD51
:105330002346184610BD0023184610BD10B5C3689B
:1053400004461A785F2A0BD06E2A06D00C30FFF77D
:10535000B3FFE3681A785F2A06D04FF0FF3010BD24
:1053600000200133E36010BD0130FAE738B5C368AF
:1053700004461A78542A01D0002038BD0133C36096
:10538000FFF7DCFF051EF7DBA16A6369A269013143
:105390009342A162F0DA03EB4302216901339200E8
:1053A00063618B18E8D005248C545D60184638BDC5
:1053B00008B5C3681A785F2A01D0012008BD0133FF
:1053C00040F80C3FFFF778FFC043C00F08BD00BF97
:1053D00070B504460C30FFF76FFF061E32DDE5683E
:1053E00063685B1B9E422FDCA268AB195207E36027
:1053F00015D4092E0CDD28461449082208F04EFB6E
:1054000030B92B7A2E2B10D05F2B0ED0242B0CD042
:10541000294632462046FFF7A7FDE06270BDAA5D2F
:10542000242A04BF0133E360E3E76B7A4E2BEFD10C
:10543000236B204616339E1B266305491522FFF772
:1054400093FDEAE7002070BD0020E6E7002901088F
:105450000C29010838B5044629B9C3681A7832B155
:105460005A1CC2601978682912D0762901D0002010
:1054700038BD04F10C052846FFF71EFFE3681A78D3
:105480005F2AF4D10133E3602846FFF715FF03E0FC
:1054900004F10C00FFF710FFE3681A785F2AE6D1E9
:1054A0000133E360012038BDD0F810310246C3B1AA
:1054B0005A680B68906870B102782F2A0DD1002BC2
:1054C00004DC09E002782F2A07D143B18068013B50
:1054D0000028F7D17047704701D00020704740681E
:1054E000704701211846C2F81811704738B50C46AC
:1054F000054691B323784A2B27D8DFE803F02E2600
:10550000262626302E2B2B2626262626262626261F
:105510002626262626262E26262626262626262623
:1055200026262626262E2626262626262626262E0B
:105530002B2626262626262626262626262E2626FE
:1055400026262E262E26262E2E0028466168FFF7B8
:10555000CDFF18B9A468002CCCD1002038BD284656
:10556000211DFFF7A1FF0028F7D003782F2BF4D1DE
:1055700038BD00BFF0B55368946801330B44A342B3
:1055800083B015460E46074613D8EC680CB103B03D
:10559000F0BD95E8090032463946184408F0B2FAE1
:1055A00095E80C003244D4546B681E446E6003B01E
:1055B000F0BDD268002AEAD11CB9022B4FF00204D8
:1055C00002D96400A342FCD82868214608F0F0FB09
:1055D000034610B12860AC60D7E72868019307F054
:1055E0006FFF019B01222B606B60AB60EA60CEE72E
:1055F0002DE9F041C36805461A784C2A02D00020F4
:10560000BDE8F0815A1CC26059785F293AD05A2906
:105610000DD10132EA602846002100F0EFFDEA6872
:105620001378452BEBD10132EA60BDE8F08100F040
:1056300003FA07460028E2D00378272B33D0E96825
:105640000B786E2B28D04FF03B08452B34D0002B25
:10565000D5D04B1C01E0002CD1D0EB601E4613F8D6
:10566000014B452CF7D1721A2846FFF77DFC3A46CC
:10567000034641462846FFF72BFCEA681378452B82
:10568000BDD1D0E79A1CC2609B785A2BC1D0452B64
:105690004FF00000B3D1C6E74A1CEA604B784FF0E8
:1056A0003C081146D1E743681A7C002AC7D05A68E3
:1056B0002B6B9B1A2B63C2E70022D5E7F0B5C168BC
:1056C00083B00B780446493B012BC76A1ED84A1C9D
:1056D000C2604B78452B45D0002102AE46F8041D30
:1056E000493B0F2B35D8DFE803F02F2F3414343427
:1056F000343434343434343434080132E2602046F3
:1057000001F06CFAE3681A78452A27D0002003B02C
:10571000F0BD2046FFF76CFF054620462F212A46A4
:105720000023002DF2D0FFF7D3FB306000F1080614
:105730000028EBD0E2681378452BD1D101980132D3
:10574000E260E76203B0F0BD2046FFF7B7FF054611
:10575000E3E7204600F070F90546DEE70133E36039
:105760000546DAE702310022C16013462F2103B05B
:10577000BDE8F040FFF7ACBB2DE9F041C26882B054
:10578000137805464C3B0E2B6DD8DFE803F02C6CEC
:10579000316C6C6C6C176C2C6C6C6C6C080001328E
:1057A0000021C26000F02AFDEB6806461978452901
:1057B00000F0D180002002B0BDE8F0815378742B56
:1057C00069D00021FFF7AAFCEB6804461B78492B3F
:1057D00050D12846FFF772FF22460346042128468F
:1057E000FFF776FB01E001F0BBF802B0BDE8F08105
:1057F0000132C26001A90122FFF7D0FB0746002851
:10580000D8D028460021FFF723FCEB6880461C789F
:105810000026002C00F08E80442C00F08280A4F141
:105820003002D2B2092A5CD9A4F16102D2B2192A9B
:1058300057D9432C55D0552C53D04C2C51D0532CE8
:1058400000F08480492C7AD0542C00F0B380452C91
:1058500000F0D8804D2C6DD1002E6BD05A1CEA6020
:105860005C781346D5E701F07BF8EB6804461B78BB
:10587000492B03D0204602B0BDE8F081002899D022
:105880002B6A6A6A934295DAEA69591C42F8230046
:10589000284629629EE702326549C2600322FFF76B
:1058A00063FB0446284601F05BF8224603460121CB
:1058B0002846FFF70DFB2A6BEB6803322A631B783F
:1058C0000446492BD6D100283FF474AF2B6A6A6A8C
:1058D0009342BFF66FAFEA69591C42F82300296270
:1058E00077E7284601F03CF8CEB101213246034665
:1058F0002846FFF7EDFA0646EB68532C1C7888D053
:10590000452C8CD0B6B12B6A6A6A934212DAEA69E6
:10591000591C42F82360EB6829621C7879E7064637
:10592000EAE75B7803F0DF03542BDAD1284600F076
:1059300083F8D9E70020386002B0BDE8F081002E7E
:10594000F8D02846FFF7BAFE0421CFE72846012108
:10595000FFF7E4FBC8E75A1CEA605A78732A3DD087
:10596000642A2BD04FF0FF372846FFF705FF044687
:1059700020B10378442B01D0462B29D17B1C25D0A4
:105980006B69AA69934213DA03EB43022969013375
:1059900092006B618B1803D0452088549F605C6037
:1059A000284632460221FFF793FA02B0BDE8F081A3
:1059B0000023F5E72846FFF7D9FC95E70233EB60B3
:1059C0002846FFF7BBFC071ECEDAF3E62346E7E7DF
:1059D0002846FFF7EDFC0028D0D1EBE60233EB6060
:1059E0002846FFF7E5FC00283FF4E4AE28461149BD
:1059F0000E22FFF7B9FA3246034602212846FFF786
:105A000067FAF2E63E60002E3FF4D4AEB8F1000F24
:105A100004D0019BCDF80480C8F80430EB681A78F4
:105A2000452A7FF4C7AE0133EB600198DDE600BF85
:105A30003429010824290108F0B5C26883B013781D
:105A40000446722B54D0562B52D04B2B50D0A3F17E
:105A500030014A297DD8DFE811F0A200A200A2009F
:105A6000A200A200A200A200A200A200A2007C004C
:105A70007C007C007C007C007C007C00A7007C001B
:105A8000CF00FF007C00DC00F2007C007C007C008A
:105A90007C007C007101A200C101A7017C00B4015F
:105AA000CE01EF0107027C007C007C007C00A2009C
:105AB0007C007C007C007C007C007C0018021802CA
:105AC0001802180218021802180218021802180206
:105AD0007C0018021802180218027C007C007C006E
