:020000040800F2
:1000000040480020AD010008A9010008A90100082E
:10001000A9010008A9010008A901000800000000CA
:10002000000000000000000000000000A90100081E
:10003000A901000800000000A901000825300008FF
:10004000A9010008A9010008A90100086D300008F5
:10005000A9010008651D0008E50D0008310E000823
:100060007D0E0008C90E0008150F0008851800084D
:1000700055190008ED180008BD190008251A0008D8
:100080008D1A0008F51A000831160008A9010008A9
:10009000A9010008A9010008A9010008610F0008D2
:1000A000193300085533000891330008E133000884
:1000B0002D320008FD33000819340008BD27000860
:1000C000A901000885280008A9010008D926000810
:1000D00025270008E54000080D41000835410008CB
:1000E000D10F0008A9010008A9010008A901000812
:1000F000A9010008A9010008A90100087916000853
:10010000A9010008A901000835340008712700087A
:100110005D41000885410008513400086D34000835
:100120005D1B0008C51B00082D1C0008951C00085D
:10013000FD1C0008A9010008A9010008A901000888
:10014000A9010008A9010008A9010008A9010008E7
:100150005FF808F110B5054C237833B9044B13B19F
:100160000448AFF300800123237010BD78090020FC
:1001700000000000D838010808B5064B1BB106483E
:100180000649AFF300800648036813B1054B03B17D
:10019000984708BD00000000D83801087C090020FD
:1001A0007009002000000000FEE700BF1149124B5B
:1001B00010B499420BD2C843184420F003000F4CEE
:1001C00004300023E258CA5004338342FAD10C4B66
:1001D0000C4A93420AD2D943114421F00301194435
:1001E0000022043B43F8042F8B42FBD15DF8044B03
:1001F00001F016B90000002074090020C83B010876
:10020000780900203C44002000207047024B1878F9
:100210005B78C01A704700BF94090020064B5A78DB
:100220001978914204D99918013208795A707047A7
:100230004FF0FF30704700BF94090020044B5A78FC
:100240001978914286BF9B1818794FF0FF3070479C
:1002500094090020704700BF38B505460C46084693
:1002600041B107F00FFD2B68024621469B682846E6
:10027000984738BD38BD00BF2DE9F041144E82B01B
:1002800096F8243005460C4690466BB142B18F1863
:100290002E6814F8011B36682846B047BC42F7D1D7
:1002A000404602B0BDE8F081406901300128686134
:1002B000286905D002F000FC404602B0BDE8F0819C
:1002C00096F8251022460093434602F047FCE7E7E4
:1002D0009409002038B5164C0A4694F8243043B1EE
:1002E00094F826301F2B10D901230025436028469F
:1002F00038BD45690135012D4561006913D01A46A5
:1003000002F0BAFB0125284638BD94F827100125D4
:100310004B19DBB2214484F8273084F8263081F869
:100320002820284638BD94F8251002F07FFBEAE724
:100330009409002070B5174C0546006901F04CFD8A
:10034000154E4FF40061204600F04AFF01F044FDD5
:10035000204632464FF4007100F0D2FE204632466D
:100360004FF4807100F0CCFE2C6901F0B9FF00223F
:1003700001460123204602F0B5FA286902F0FEFA90
:10038000064B00225A701A7083F8272083F8262023
:1003900070BD00BF000C01400200008094090020E5
:1003A000054B0022012083F8251083F8240083F8F0
:1003B000272083F8262070479409002008B5036899
:1003C0001B68984708BD00BF10B50B4C82B094F86D
:1003D000252094F8263000690091114604F1280286
:1003E00002F0BCFB0023C0B284F8273084F826302A
:1003F00084F8243002B010BD940900200121FFF7D9
:10040000E3BF00BF30B5094C83B0202A34BF154686
:1004100020250069221D00932B4602F0DFFC0023FB
:10042000C0B22070637003B030BD00BF94090020DB
:100430000123FFF7E7BF00BF08B503681B699847B2
:1004400008BD00BF074B0848084910B400224FF40C
:100450007A749C65186519665A655A665DF8044B8E
:10046000704700BF94090020882001080058004010
:10047000EFF3108072B67047EFF3108062B67047EA
:1004800008B5FFF7F9FFC0B208BD00BF08B5FFF718
:10049000EFFFC0B208BD00BF10F0FF0370B40DD174
:1004A0002B4B98421CD02B4B984230D02A4B984271
:1004B0003FD02A4B98421DD070BC704700F003001B
:1004C000C000FF2484408140254A03F0FC0313440C
:1004D0001B6A1A6822EA04000843186070BC70475F
:1004E0000A0442EA01220A431E4B42EA01611960F2
:1004F00070BC7047080440EA01201B4A08431B4BAC
:1005000040EA016010601A6870BC19607047184BAF
:10051000080640EA0142174C1D681A6042EA0125AC
:10052000154A23682560154B146810601A68196015
:10053000C2E708060F4A40EA0145114C41EA012191
:10054000104B0D431668106025601A681960B3E7F8
:10055000000029080000031100001109000021100B
:10056000C020010818E400E038E400E03CE400E0CA
:1005700004E400E008E400E014E400E028E400E023
:100580000CE400E010E400E00428F0B43FD00528BB
:1005900052D0062857D00F2825D0C3B2103B432B8A
:1005A0003CD9020AD3B2103B442B23D9434B984287
:1005B00050D0434B98425BD0424B98426CD0424B58
:1005C000984215D1414B4FF080754FF000744FF0B9
:1005D00080604FF000614FF080521D601C60186019
:1005E00019601A6004E03A4B1A6842F002021A607D
:1005F000F0BC7047103A02F01F02012101FA02F22A
:100600005B0903F1382340339B001A60F0E7314B5C
:10061000F0BC1A6842F480321A607047103800F05B
:100620001F00012202FA00F0F0BC5B0903F138233D
:1006300040339B0018607047264BF0BC1A6842F4A8
:1006400000321A607047234BF0BC1A6842F48022D3
:100650001A607047204B4FF080744FF000704FF0DD
:1006600080614FF000621C60186019601A60BFE77B
:10067000194B16494FF48072402780264FF40075BD
:100680004FF480644FF400001F601E601A601D600C
:100690001C6018600A60ABE70F4B4FF400674FF423
:1006A00080561F604FF400554FF480444FF40040D3
:1006B0004FF480314FF400321E608EE700002908AD
:1006C00000000311000011090000211004E100E006
:1006D00010E000E024ED00E000E100E00428F0B4C8
:1006E00040D0052852D0062857D00F2827D0C3B2B3
:1006F000A3F11002432A3CD9020AD3B2A3F110019C
:10070000442923D9424B98424ED0424B984259D06B
:10071000414B98426AD0414B984215D1404B4FF023
:1007200080754FF000744FF080604FF000614FF023
:1007300080521D601C60186019601A6004E0394B1B
:100740001A6822F002021A60F0BC704702F01F0221
:10075000012101FA02F25B0903F1382360339B00A7
:100760001A60F1E7304BF0BC1A6822F480321A604C
:10077000704700F01F00012202FA00F0F0BC5B0994
:1007800003F1382360339B0018607047264BF0BCA0
:100790001A6822F400321A607047234BF0BC1A68C2
:1007A00022F480221A607047204B4FF080744FF083
:1007B00000704FF080614FF000621C60186019609B
:1007C0001A60C1E7194B16494FF480724027802602
:1007D0004FF400754FF480644FF400001F601E60FA
:1007E0001A601D601C6018600A60ADE70F4B4FF483
:1007F00000674FF480561F604FF400554FF480445B
:100800004FF400404FF480314FF400321E6090E707
:100810000000290800000311000011090000211048
:1008200084E100E010E000E024ED00E080E100E081
:10083000024B1A6842F005021A60704710E000E0AF
:10084000024B1A6842F002021A60704710E000E0A2
:10085000014B01381860704714E000E0002264305A
:10086000134601F07DBE00BF02282DE9F00F37D8F6
:100870000138C0B24200244B02EB000A03EBCA0A63
:100880009AF848B0BBF1000F0ED0104403EBC00043
:100890003430438989B203FB01F1BDE8F00F1B4BF3
:1008A000B3FBF1F1016070474FF0C80B8AF84800C4
:1008B000AAF83EB0CAF84430A0B101281BD002EB20
:1008C000000A03EBCA0A8AF838808AF83BC08AF823
:1008D00039708AF83A608AF83C508AF83D40D4E78B
:1008E0000020D6E70C240B2509260A274FF00D0C13
:1008F0004FF00808E3E706240525032604274FF0F8
:10090000070C4FF00208DAE7FC0900200087930388
:1009100070B500F1100382B004460E4600F14005A8
:10092000002243F8082C03F8042C03F80A2C03F8DF
:100930000B2C03F80C2C0C33AB424FF00000F0D121
:1009400084F8400084F84800E08784F8580084F870
:100950006000A4F85600402104F1640001F0FEFD9F
:100960002670314601A801F0F9FD9DF804302046BB
:1009700084F8643002B070BD70B5044600F16405BF
:100980000C480E46FFF7D6FC284601F045FE66806F
:10099000304604F045FE0146284601F04DFE002495
:1009A0000022E1B213462846013401F0D9FD102C93
:1009B000F6D170BDE409002010B5094C9AB0684624
:1009C0006021FFF7A5FF69466522204606F018FD65
:1009D00020464FF4C861FFF7CFFF1AB010BD00BF2B
:1009E000FC090020B2F5805F00F1640003D21346D9
:1009F000002201F0B5BD4FF48052002301F0B0BDDC
:100A00002AB164304FF48052002301F0A9BDFFF7F2
:100A100025BF00BF10B5044661790069FFF71EFFCE
:100A20002069A179FFF71AFF2069217AFFF716FFE5
:100A30002069617AFFF712FF206921790022FFF710
:100A4000D1FF2069E1790022BDE81040FFF7CABF5D
:100A500002282DE9F00731D8431EDBB25900234AA2
:100A600001EB030902EBC90999F848A0BAF1000F9C
:100A700008D00B4402EBC30202F13400BDE8F007DA
:100A8000FFF7C8BF4FF0C80A89F84830A9F83EA060
:100A9000C9F84420BBB1012B1ED001EB030902EBC6
:100AA000C90989F8388089F83BC089F8397089F814
:100AB0003A6089F83C5089F83D40DAE70020BDE80B
:100AC000F007FFF7A7BF0C240B2509260A274FF0D4
:100AD0000D0C4FF00808E0E706240525032604273F
:100AE0004FF0070C4FF00208D7E700BFFC090020C9
:100AF000F8B5012A15460446037B00F0A680022AB9
:100B000049D0032A49D0042A40F0CA8001290CBFE9
:100B1000013303F1FF33DBB203F03F030F2B40F24D
:100B2000B180A3F110020F2A00F2BF806B49C3F11C
:100B30002000CA1812F8102C0D5C12012D0120693A
:100B400021792373FFF74EFF2A462069E179FFF7E9
:100B500049FF237B102BA3F1100234BF032500258E
:100B60000F2AA3F1200298BF45F00605303B0F2A5B
:100B700098BF45F00C050F2B2BD845F00905EB0766
:100B800029D405F0020705F0040605F00805FFB2B8
:100B9000F6B2EDB254E01A077CD401290CBF083339
:100BA000083BDBB203F03F032373206921794FF444
:100BB0007F62FFF717FF2069E1794FF47F62FFF74B
:100BC00011FF042DC5D0237BDB08072B35D8444A01
:100BD000D55CEB07D5D52069A1790122FFF710FF7D
:100BE00005F0020705F0040605F00805FFB2F6B2AD
:100BF000EDB22069217A7FB10122FFF701FF206960
:100C000061797EB10122FFF7FBFE2069617A7DB92F
:100C1000FFF724FE207BF8BDFFF720FE20696179F5
:100C2000002EEFD1FFF71AFE2069617A002DEFD078
:100C30000122FFF7E5FE207BF8BD00252E462F465A
:100C40002069A179FFF70AFED3E7180714D4012918
:100C50000CBF1033103BDBB203F03F03206923735A
:100C600021794FF47F62FFF7BDFE2069E1794FF4EF
:100C70007F62FFF7B7FEA6E701290CBF0833083BE8
:100C8000DBB2E9E71549C3F110028A5CCD5C1201C1
:100C90002D0154E701290CBF1033103BDBB281E773
:100CA00003F03F0300692373DAE7A3F120020F2A60
:100CB00009D80A4AC3F13001D01810F8205C525C00
:100CC0002D0112013BE70549C3F14000CA1812F893
:100CD000302C0D5C12012D0131E700BF0000002017
:100CE0003C210108032B2DE9F04106461D469046A4
:100CF000076815D0042B0FD061B10C4641462A4637
:100D00003046013CFFF7F4FEA4B2384602F0A2F9E7
:100D1000002CF3D1BDE8F081090189B23F09EBE76E
:100D20007F08E9E72DE9F00F022882B034D80138B6
:100D3000C0B24500274C05EB000A04EBCA0A9AF83A
:100D400048B0BBF1000F09D0284404EBC000343098
:100D500089B202B0BDE8F00FFFF7C4BF4FF0C80B77
:100D60008AF84800AAF83EB0CAF84440D8B1012831
:100D700025D005EB000A04EBCA0A8AF83A60009E07
:100D80008AF838808AF83C60019E8AF83BC08AF86D
:100D900039708AF83D60D7E7002089B202B0BDE81B
:100DA000F00FFFF79FBF0B264FF00C0C8DE84010A3
:100DB0000A2709264FF00D0C4FF00808D9E7052641
:100DC00006278DE8C0004FF0070C032604274FF0DC
:100DD0000208CEE7FC09002001486021FFF798BD1A
:100DE000FC090020104B2DE9F0411F681A680F4DD7
:100DF00042F00102A8461A60002402E00834402CA8
:100E00000FD02B5B012BF9D108EB0406766800208C
:100E1000394602460346002EF0D00834B047402C35
:100E2000EFD1BDE8F08100BF14040140640A002046
:100E3000104B2DE9F0411F681A680F4D42F0020275
:100E4000A8461A60002402E00834402C0FD02B5B27
:100E5000022BF9D108EB04067668002039460246D9
:100E60000346002EF0D00834B047402CEFD1BDE847
:100E7000F08100BF14040140640A0020104B2DE9EA
:100E8000F0411F681A680F4D42F00402A8461A602C
:100E9000002402E00834402C0FD02B5B042BF9D146
:100EA00008EB040676680020394602460346002E09
:100EB000F0D00834B047402CEFD1BDE8F08100BF3E
:100EC00014040140640A0020104B2DE9F0411F6812
:100ED0001A680F4D42F00802A8461A60002402E08A
:100EE0000834402C0FD02B5B082BF9D108EB0406FB
:100EF00076680020394602460346002EF0D00834BA
:100F0000B047402CEFD1BDE8F08100BF1404014090
:100F1000640A0020104B2DE9F0411F681A680F4D3C
:100F200042F01002A8461A60002402E00834402C67
:100F30000FD02B5B102BF9D108EB0406766800204C
:100F4000394602460346002EF0D00834B047402C04
:100F5000EFD1BDE8F08100BF14040140640A002015
:100F6000194B2DE9F0411B68980603D459061FD58B
:100F7000402600E02026144B144D1A68A846324340
:100F80001A60002402E00834402C0FD02B5BB342DF
:100F9000F9D108EB04077F680020014602460346AA
:100FA000002FF0D00834B847402CEFD1BDE8F081D5
:100FB0001A0601D58026DEE713F4807F0CBF4FF4BC
:100FC00000764FF48076D6E714040140640A0020CE
:100FD0002DE9F8431F4BD3F8008018F4806F05D13A
:100FE00018F4006F21D04FF4006601E04FF48066E2
:100FF000184B194D1A68A94632431A60002402E0C2
:101000000834402C0FD02B5BB342F9D109EB040715
:101010007F680020414602460346002FF0D0083486
:10102000B847402CEFD1BDE8F88318F4805F0AD1AF
:1010300018F4005F0AD118F4804F0CBF4FF400463B
:101040004FF48046D4E74FF48056D1E74FF4005672
:10105000CEE700BF14040140640A0020072910B441
:1010600012D901F18041083989000F248C401A43BC
:1010700002FA01F1426822EA040343604468214312
:1010800041605DF8044B704789000F248C401A437F
:1010900002FA01F1026822EA0403036004682143B2
:1010A00001605DF8044B70472DE9F04782460F461A
:1010B00002F00C0902F003080024012602E00134CA
:1010C000102C0CD006FA04F53D42F8D021465046CB
:1010D0004A4643460134FFF7C1FF102CF2D1BDE868
:1010E000F08700BF80680840704700BFC368D20720
:1010F00000F10C004CBF194323EA01010160704765
:10110000F8B51B4BC2F3007453F8246022F070470B
:101110000024520F21FA04F5012D02D00134102CC5
:10112000F8D16AB1012A16D0032A1AD0042A0CD0A9
:10113000336823EA0703336033681F433760F8BD21
:1011400021461346FFF78AFFF2E721460C220323CC
:10115000FFF784FFECE7214604220023FFF77EFF20
:10116000E6E7134621460822FFF778FFE0E700BFD5
:1011700044210108124B98421FD00CD9114B9842C0
:1011800013D003F58063984215D0A3F5006398420D
:101190000DD000207047A3F50063984209D003F5F5
:1011A00080639842F5D1084870470848704708485E
:1011B000704708487047084870470848704700BFA4
:1011C000001001400018014008000010400000100D
:1011D000200000100400001080000010100000101B
:1011E000704700BF10B502460C4609481E21002377
:1011F00001F01CFC08B1012010BD22461E21012374
:10120000034801F057FD003018BF012010BD00BF9A
:101210000058004030B583B0002502AC224804F8E5
:10122000015D00F0C9FD214800F0C6FD204800F036
:10123000D3FD20484FF480614FF00042FFF760FF7C
:101240004FF400614FF000421A48FFF759FF184869
:1012500001F094FB01F044F82A46014601231448AA
:1012600001F040FB21460A20FFF7BCFF18B99DF8AA
:101270000730482B02D0012003B030BD0B2021469F
:10128000FFF7B0FF0028F6D19DF80730342BF2D1DC
:1012900021460C20FFF7A6FF0028ECD19DF807009F
:1012A000333818BF0120E7E70800001001000010E4
:1012B00000580040000C014070B5002482B0054683
:1012C0000E46024623460F481E218DF8074001F0C6
:1012D000ADFB10B1012002B070BD0A4831460122B9
:1012E00001F0CAFB0028F5D128460DF10701FFF7F0
:1012F00079FF0028EED19DF80700801B18BF012060
:1013000002B070BD0058004010B5044682B0002005
:10131000E1008DF8070006D40120A2000BD4630081
:1013200017D402B010BD0DF10701FFF75BFFD8B174
:10133000012002B010BD24F00054C4F30743194645
:1013400001208DF80730FFF7B7FF0128F0D06300C8
:10135000E7D524F08044240E214602208DF8074072
:10136000FFF7AAFF02B010BD9DF8073024F08054AB
:10137000E24303F07F0303EA12232343DBB219465F
:101380008DF80730FFF798FF0128C6D1D0E700BFDE
:101390002DE9F04182B002AC002304F8013D05467E
:1013A0000E46032021461746FFF71CFF30B90420E4
:1013B00021469DF80780FFF715FF18B1012002B004
:1013C000BDE8F0819DF80730072043EA0828A5F81A
:1013D00000802146FFF706FF0028EFD108202146B4
:1013E0009DF80750FFF7FEFE0028E7D19DF8073073
:1013F000052043EA052535802146FFF7F3FE002846
:10140000DCD1214606209DF80740FFF7EBFE0028BF
:10141000D4D19DF8073043EA04243C80CFE700BFD5
:1014200080B57449744800F01DFD744F744800F095
:10143000C3FC42F2107000F0A5FC3B781BB9714A66
:1014400001237A603B7097F800286C4B2AB96E49EB
:101450000122C3F8041883F8002897F80828674B7E
:101460002AB96A490122C3F80C1883F8082897F8AA
:101470001028624B2AB966490122C3F8141883F870
:10148000102897F820285D4B2AB962490122C3F839
:10149000241883F8202801F037FE5F48022101F06C
:1014A0008FFE01F0B3FE5D4CDFF8808104F57269B8
:1014B000264608F1AC0501F09BFE94F8093F84F83C
:1014C000080F062BF7D8DFE803F0372F50291F0A43
:1014D00004005A2860D0002384F8093FEBE795F810
:1014E0000C2BD4F8141F531C885494F8102FDBB223
:1014F0009A4285F80C3B4A49DDD10022062381F847
:101500000C2B86F8093FD6E784F8100FE8B30022C9
:10151000052385F80C2B86F8093FCCE7042384F8D3
:101520000F0F84F8093FC6E78306D4D1022384F85D
:101530000D0F84F8093FBEE70023A528C4F8149FC7
:10154000C4F81C8F84F80C3F84F80D3F84F80E3FDC
:1015500084F80F3F84F8103F84F8183FABD1012383
:1015600086F80D0F86F8093FA5E794F80D3F9B0913
:1015700000EB032217F8322085F80C3B4AB1032315
:1015800086F80E0F86F8093F95E7062386F8093F8F
:1015900091E786F8092F8EE794F80D2F94F80E3F07
:1015A000920903EB022307EBC3035A6800210123CE
:1015B0001C48C5F8103B84F8091FC5F8143B904738
:1015C00094F80C3F8BB11448022101F0F9FD94F816
:1015D000180F38B101F0FCFDD6F81C0F96F8181F53
:1015E00001F0EEFD01F012FE65E70F48022101F067
:1015F000E7FDECE70108010000A24A04A40A00206C
:1016000001000010593F0008DD3A0008CD3B0008FA
:10161000693B0008F13F0008140000209C1B0020DB
:10162000942C0020A82A002018000020E82B00207D
:101630000E4B10B51968480708D00D4AC843146806
:1016400018601CB1002002460346A047094B1968E8
:101650004A070AD0064AA3F580635468CA431A6051
:101660001CB1002002460346A04710BD00240140E3
:10167000AC370020002801400D4A10B51368D9434B
:10168000D807116003F002010DD55A0741F001019E
:1016900001D541F00401074B1C681CB10020024633
:1016A0000346A04710BD5B07F3D40029F3D110BD5A
:1016B00000280140AC370020B1F5807F11D081684F
:1016C00000F1080321F002018160816841F002010C
:1016D0008160196821F46021196019680A431A6051
:1016E0007047416800F1080341F480714160F0E700
:1016F000C1EB817310B4C1EB83030F4C143304FAB4
:1017000003F3846B02F01F0224F440148463846B9F
:10171000D203234042EA5313002282638363836B24
:1017200001F0030143EA0151816343685DF8044B12
:1017300043F4806343607047FFFF0F00836843F00A
:1017400001038360704700BF836B30B4C3F3015360
:10175000451A4035581C0439002301336C58DAB25D
:10176000904241F8044FF8D830BC70472DE9F04161
:10177000002480460D46264608EB040319790A2208
:10178000284601F0FFFB2E210746284601F0AEFB5C
:1017900001343844032C0644EED1284698F807104B
:1017A0000A2201F0EFFB3044BDE8F081044B05490B
:1017B000002219601A715A719A71DA71704700BF6C
:1017C000B83700206821010870B504460E4615465A
:1017D000FEF75CFE23681E44266023689D4205D800
:1017E00023685B1B23602368AB42F9D200B170BD54
:1017F000BDE87040FEF744BE426803680132B2FBA8
:10180000F3F103FB112380681B1A584258417047BB
:1018100042688068131A58425841704710B5816871
:10182000C2680346545C08301A680121FFF7CCFFF8
:10183000204610BD10B4C2684468034611550430F8
:101840001A6801215DF8044BFFF7BEBF2DE9F04196
:1018500004467AB10D4601EB0208071D15F8016B2D
:101860006168E36838465E5422680121FFF7ACFFE7
:101870004545F3D1BDE8F081002383600260C1607B
:101880004360704710B5164B164A1B68117A16480C
:1018900003F00F040129046000D010BD13F0020012
:1018A0000AD113F0080110D05468002CF5D001467D
:1018B00003460822A04710BD5468002CEDD000203C
:1018C000014603460222A04710BD5B07E5D55468D8
:1018D000002CE2D0084603460422A047DDE700BF03
:1018E000000002401C0000200400024010B5164B0E
:1018F000164A1B6892F82010154803F470640129F9
:10190000046000D010BD13F400700AD113F400611C
:1019100010D0D469002CF5D0014603460822A04718
:1019200010BDD469002CEDD00020014603460222F0
:10193000A04710BD5B05E5D5D469002CE2D0084670
:1019400003460422A047DDE7000002401C000020FF
:101950000400024010B5164B164A1B68117D16484C
:1019600003F0F0040129046000D010BD13F0200042
:101970000AD113F0800110D01469002CF5D0014673
:1019800003460822A04710BD1469002CEDD00020AA
:10199000014603460222A04710BD5B06E5D5146947
:1019A000002CE2D0084603460422A047DDE700BF32
:1019B000000002401C0000200400024010B5164B3D
:1019C000164A1B6892F82C10154803F4704401293C
:1019D000046000D010BD13F400500AD113F400418C
:1019E00010D0946A002CF5D0014603460822A04787
:1019F00010BD946A002CEDD000200146034602225F
:101A0000A04710BD5B04E5D5946A002CE2D00846DF
:101A100003460422A047DDE7000002401C0000202E
:101A20000400024010B5164B164A1B6892F8381095
:101A3000154803F470240129046000D010BD13F48C
:101A400000300AD113F4002110D0546B002CF5D0D3
:101A5000014603460822A04710BD546B002CEDD070
:101A60000020014603460222A04710BD5B03E5D5D6
:101A7000546B002CE2D0084603460422A047DDE761
:101A8000000002401C0000200400024010B5164B6C
:101A9000164A1B6892F84410154803F47004012993
:101AA000046000D010BD13F400100AD113F400013B
:101AB00010D0146C002CF5D0014603460822A04734
:101AC00010BD146C002CEDD000200146034602220C
:101AD000A04710BD5B02E5D5146C002CE2D008468F
:101AE00003460422A047DDE7000002401C0000205E
:101AF0000400024010B5164B164A1B6892F85010AD
:101B0000154803F070640129046000D010BD13F083
:101B100000700AD113F0006110D0D46C002CF5D005
:101B2000014603460822A04710BDD46C002CEDD01E
:101B30000020014603460222A04710BD5B01E5D507
:101B4000D46C002CE2D0084603460422A047DDE70F
:101B5000000002401C0000200400024010B5164B9B
:101B6000164A1B68117A164803F00F040129046015
:101B700000D010BD13F002000AD113F0080110D0FC
:101B80005468002CF5D0014603460822A04710BD3A
:101B90005468002CEDD00020014603460222A047E5
:101BA00010BD5B07E5D55468002CE2D0084603461B
:101BB0000422A047DDE700BF000402401C00002013
:101BC0000404024010B5164B164A1B68117D1648D6
:101BD00003F0F0040129046000D010BD13F02000D0
:101BE0000AD113F0800110D01469002CF5D0014601
:101BF00003460822A04710BD1469002CEDD0002038
:101C0000014603460222A04710BD5B06E5D51469D4
:101C1000002CE2D0084603460422A047DDE700BFBF
:101C2000000402401C0000200404024010B5164BC2
:101C3000164A1B6892F82010154803F470640129B5
:101C4000046000D010BD13F400700AD113F40061D9
:101C500010D0D469002CF5D0014603460822A047D5
:101C600010BDD469002CEDD00020014603460222AD
:101C7000A04710BD5B05E5D5D469002CE2D008462D
:101C800003460422A047DDE7000402401C000020B8
:101C90000404024010B5164B164A1B6892F82C102B
:101CA000154803F470440129046000D010BD13F4FA
:101CB00000500AD113F4004110D0946A002CF5D0E2
:101CC000014603460822A04710BD946A002CEDD0BF
:101CD0000020014603460222A04710BD5B04E5D563
:101CE000946A002CE2D0084603460422A047DDE7B0
:101CF000000402401C0000200404024010B5164BF2
:101D0000164A1B6892F83810154803F4702401290C
:101D1000046000D010BD13F400300AD113F4002188
:101D200010D0546B002CF5D0014603460822A04782
:101D300010BD546B002CEDD000200146034602225A
:101D4000A04710BD5B03E5D5546B002CE2D00846DC
:101D500003460422A047DDE7000402401C000020E7
:101D600004040240054A10B5054B14681A681CB1FA
:101D7000002001460346A04710BD00BFC037002029
:101D80000810024001387FF4FDAF704738B5C0F34A
:101D9000044385B29D40074B000F53F820401020AC
:101DA00023682B432360FFF7EDFF236823EA050533
:101DB000256038BD88210108C0F3044382B29A40EF
:101DC000044B000F03EB8000C36819680A431A60D4
:101DD000704700BF88210108104B98420AD0104B71
:101DE000002101E0824206D0DA6801310C33002A7A
:101DF000F8D1704700210B4A01EB410102EB810150
:101E00000B6A98B2C3F3044100FA01F11B0F02EB15
:101E10008302D3681A680A431A607047002401409D
:101E2000A4210108882101080B4B98420AD00B4BD2
:101E3000002101E0824206D0DA6801310C33002A29
:101E4000F8D170470021064B01EB410103EB810102
:101E5000086AFFF79BBF00BF00240140A4210108CE
:101E600088210108A54BF0B41E68A54C46F0010678
:101E70001E602768A34DA44E3D4025601D68A34FFA
:101E800025F0847525F480351D601D6882B025F429
:101E900080251D60D4F800C0C1F307252CF4FE0C8A
:101EA000C4F800C0D3F800C000242CF0A05CC3F834
:101EB00000C0D6F800C02B1F0CF47F0CC6F800C081
:101EC0000C2B3E683C60924C84BF08232360914BEE
:101ED00098BF25600B40012B47D0C0F09B80B3F129
:101EE000011F42D08C4B8D4C1D68A04245F020054F
:101EF0001D6022D81C6824F007041C601C681C604C
:101F00007F4B90421C6824F47F5424F030041C6002
:101F100010D0824249D9B2FBF0F100FB11224AB93C
:101F20000823012202FA03F0084240F0B78013F1BF
:101F3000FF33F7D202B0F0BC7047794CA0420BD906
:101F4000784CA042DCD81C6824F007041C601C6894
:101F500044F002041C60D3E71C6824F007041C60F2
:101F60001C6844F001041C60CAE7644B1A681D46F3
:101F700022F480321A601A6822F400321A601A6859
:101F800042F480321A6002E0002B40F093802B680C
:101F9000019AC3F3404301320192019AB2F5A06F56
:101FA000F2D1002B40F08680FEE7C90357D5B0FB85
:101FB000F2F102FB1104002C5ED11A68023942F4DE
:101FC00080321A601A68890422F478121A601A683A
:101FD00001F470110A431A60494B484A19681846BF
:101FE0001960196841F480511960116841F08071DD
:101FF000116012681A6822F003021A601A6842F02F
:1020000002021A60036803F00C03082BFAD102B035
:10201000F0BC7047394B1C681D4644F001041C603D
:102020002B689E07FCD5364B1C681D4624F0030424
:102030001C601C681C602B6813F00C0FFBD1CD07D3
:1020400004D52E4B1C6824F001041C60CC017FF5E4
:1020500049AF2A4B1C6844F080741C6042E7400082
:10206000B0FBF2F102FB1102002A7FF463AF1A68A1
:10207000890422F47412A9E74000B0FBF2F102FBDC
:102080001102002A7FF456AF1A68023942F4403236
:102090001A601A68890422F4701297E72249184AD4
:1020A0000B4493F8D811136843EA0113136002B08C
:1020B000F0BC7047124B1A681D4622F003021A60EA
:1020C0001A6842F001021A602B6803F00C03042B1B
:1020D000FAD12368154A02FB03F2CB0704D5074B5C
:1020E0001C6824F001041C60CF017FF5FBAE034B9C
:1020F0001C6824F080741C60F4E600BF00100240ED
:10210000041002400000FFF8081002402C100240AA
:10211000B8000020030001000020024000366E01DC
:10212000006CDC0200A24A048821010840420F0032
:10213000030F012B24D0ABB1022B2FD02D4A90429C
:102140004CD02D4A90423AD0C2B2C0F3044002FAB9
:1021500000F02A4A02EB8303D3F8E4311A681043F3
:1021600018607047C3B2C0F3044003FA00F0244B78
:102170001A6822F070621A601A681043186070477B
:10218000C3B2C0F3044003FA00F01E4B1A6822F4F5
:1021900040721A601A68104318607047C3B243F067
:1021A0000102C0F30440824003FA00F0164B1968A4
:1021B00021EA02021A601A68104318607047012968
:1021C00012D9082912D94FF440400D4B196821F457
:1021D000404119601A6802431A6070470B4B1A6835
:1021E00042F001021A6070470020EEE74908481EDD
:1021F0008003EAE7070E0830170E08388821010827
:1022000004100240201002402C1002402410024012
:10221000014B024A1A60FEE70CED00E00400FA05EB
:10222000294B70B41A6802F00C02042A38D0082A2C
:102230002BD118681B68C0F383400D2803F480334A
:1022400014BF02300620002B39D0204A13681168D1
:1022500013F4803F01F00F0101F101011C4B25D067
:102260001C4E1C68156806FB04F41268C5F30315C0
:102270000135C2F30322B4FBF5F4023202FB04F48D
:10228000B4FBF1F101FB00F001E01348104B0E4AE2
:1022900070BC1268C2F3031213441B79D840704714
:1022A0000B4B0C481A6800FB02F0F0E7094C1A6867
:1022B00004FB02F2B2FBF1F101FB00F0E7E7074A91
:1022C000034B02FB00F0E2E7041002402C10024036
:1022D000B800002040420F0000127A0000093D00C3
:1022E00008B5FFF79DFF044B044A1B68C3F30223A4
:1022F00013441B79D84008BD04100240B8000020E8
:1023000008B5FFF78DFF044B044A1B68C3F3C223D3
:1023100013441B79D84008BD04100240B8000020C7
:1023200038B5204C23782BB3002502211E48257098
:1023300001F0AAF82A46A06002211B4801F030F9FA
:10234000A26863689A4211D8A2F5EE42473AD21ABF
:1023500092B2A281A289154B92B2A3FB0212A37B77
:102360005209032BA28114D0002038BDD31A9BB28E
:10237000A381EFE702210C4801F086F8022160609A
:102380000A46094801F00CF9237800200133237034
:1023900038BD054801F096FA2D20FEF79FF9002080
:1023A00038BD00BFC43700200004004009CB3D8D7C
:1023B000014B988980B27047C437002070B5344D06
:1023C0003448FFF7F9FC4FF480512846FEF7D2FE5F
:1023D000FFF7F2FC80212846FEF7CCFEFFF7ECFC6D
:1023E00028464FF480510322FEF75EFE28464FF444
:1023F00080510022FEF77AFE284680210822264CD2
:10240000FEF752FE284680210022FEF76FFE802153
:10241000224A2846FEF774FE2046FFF7DDFCFFF750
:10242000FFFE1F4D1F4B022128614122204601F073
:1024300081FA20460221002201F0B2F80122204652
:10244000022101F017FA204648F6B80101F03CFBE2
:102450002B69154A2046A2FB03610022890C01F07A
:1024600037FA2046114901F02DF81E22204602219C
:1024700001F018F802212D20FEF70EF82D20FEF7AE
:1024800083F8204601F018FA0223AB7370BD00BF39
:10249000001001400100001000040040000C00404A
:1024A000C437002040420F0083DE1B432123000875
:1024B000014B00229A737047C43700200369186CDF
:1024C0005B6CC01A00F03F00704700BF0369196CD5
:1024D0005A6C91421ABF5A6C985C4FF0FF307047AB
:1024E0000369196C5A6C914207D0596C5A6C585C4C
:1024F000013202F03F025A6470474FF0FF307047DC
:1025000010B50446237D13B90023237510BDA069BF
:1025100001F07EFF0028F5D10023237510BD00BF18
:1025200008B5806901F0C4FE012008BD084B0948C8
:10253000094910B400224FF47A741C655A649B65F3
:1025400098641966DA641A645DF8044B704700BF3A
:10255000D8370020802301080038014001707047FF
:10256000F8B5124C05780F4620462946BF0016469E
:102570001D46FDF715FFB91D01F0FE012046FDF7D0
:102580001DFFF1B22046FDF719FF310A2046FDF785
:1025900015FFE9B22046FDF711FF2046290AFDF795
:1025A0000DFF2046BDE8F840FDF728BFE4090020F4
:1025B00070B50C4C05460E4620462978FDF7F0FE16
:1025C00031462046FDF7FAFE2046FDF717FF297831
:1025D00001222046FDF72CFF2046FDF72DFFC0B25B
:1025E00070BD00BFE409002070B50A4C03780D46A9
:1025F000204619461646FDF7D3FE29462046FDF72C
:10260000DDFE20463146FDF7D9FE2046BDE870408C
:10261000FDF7F4BEE409002010B504460448FDF7B8
:1026200089FE002120460A46BDE81040FFF7DCBFC6
:10263000E409002000000000F8B50646084602F054
:10264000B3FB21A3D3E9002302F002FC02F0E2FE77
:1026500001461F4803F0F0F84FF07E5102F02EFFC4
:1026600002F0A2FB1B4B002202F040FA01F0D8FE60
:1026700004460D4630460021FFF79AFF00F06F0236
:10268000074642F0100230460021FFF7ADFF294611
:10269000204602F09FFEFE21C2B23046FFF7A4FFA3
:1026A0003A4630460021FFF79FFF052000F0C2FCAC
:1026B00067F05E023046D2B20021BDE8F840FFF775
:1026C00093BF00BFAFF30080CDCCCCCCCCCCEC3FE3
:1026D00020BCBE450000E03F0E4B10B51A68540602
:1026E0000AD50D4909681B680C4B1C681CB10020F9
:1026F00001460346A04710BD900604D508491B6853
:102700000B680B60F0E7D106EED5196821F01001D7
:102710001960E9E7083001400C3001403C380020E6
:10272000003001400E4B10B51A6854060AD50D4909
:1027300009681B680C4B5C681CB10020014603460D
:10274000A04710BD900603D5084B19681960F1E742
:10275000D106EFD5196821F010011960EAE700BF32
:10276000083800400C3800403C3800200038004059
:102770000E4B10B51A6854060AD50D4909681B6836
:102780000C4B9C681CB1002001460346A04710BDBD
:10279000900603D5084B19681960F1E7D106EFD50B
:1027A000196821F010011960EAE700BF083C0040F9
:1027B0000C3C00403C380020003C004038B52A4921
:1027C0002A4B1A680C68196842EA0444284A24F023
:1027D0007F4421F45F41944219603DD0254B24F0A1
:1027E00002029A4212D004339C420FD0224B9C42E8
:1027F00016D002339C4213D0204B9C421AD03E3359
:102800009C4217D0B4F5901F1ED038BD1C4B002041
:102810001D68014603460246A847174B9C42E8D173
:10282000174B00201D68014603460246A847134B7C
:102830009C42E4D1124B00201D680146024603462B
:10284000A847B4F5901FE0D10D4B00201C6801464D
:1028500003461022A04738BD094B00201D680146E1
:1028600003460122A847C7E718540040145400400B
:102870004000020080000600820007000200030002
:102880004838002038B5144A144B154C19681268A2
:102890001A68002022F45F421A6065680146034608
:1028A0000122A84700206568014602460346A84762
:1028B00000206568014602460346A8470020656877
:1028C000014602460346A8470020646801460346C5
:1028D0001022A04738BD00BF1858004014580040CF
:1028E0004838002070B4204C4568A4FB016425F0F2
:1028F0003F0545604568A40C254345600568012AED
:1029000025F00105056015D0184B8909A3FB01616D
:102910008909032904F1010498BF0421C1610462FB
:10292000036870BC23F002030360036843F00103F3
:10293000036070479BB90E4BA3FB0161890D41F405
:1029400080414FF4967303FB04F40A4B41F40041B9
:10295000A3FB0424A4090134C1610462E0E7064B2F
:10296000A3FB0121C90CECE783DE1B43632D3E056D
:102970006BCA5F6BD34D6210851DD96F036823F05E
:1029800002030360036843F001030360704700BF64
:102990002DE9F0019C4600F1180633689B07FCD432
:1029A0000368044643F48073DFF8748044F8143BF2
:1029B00003E0236813F4706F07D127683368184D5C
:1029C00047EA03473D404545F3D14900C9B2154B9D
:1029D000016101E09D4209D025683768216845EA18
:1029E000074511F4706F25F07F45F3D00261BCF10B
:1029F000000F11D00C4D01E0AA4209D022683168C5
:102A0000236842EA014213F4706F22F07F42F3D050
:102A1000036843F400730360BDE8F001704700BF32
:102A20000100030082000700840007002DE9F04147
:102A300080461F460023FFF7ABFF08F118060D4B39
:102A400008F1140101E09D4209D00A6835680C685C
:102A500042EA054014F4706F20F07F45F3D02FB1A7
:102A6000D8F8003043F40073C8F8003000F4C060B8
:102A7000BDE8F08184000700F0B401610D4F00F162
:102A8000140100F1180601E0BD4209D00B68356859
:102A90000C6843EA054314F4706F23F07F45F3D0CC
:102AA0001AB1026842F40072026003F4C060F0BC24
:102AB000704700BF840007002DE9F00FB2F1010953
:102AC0009B463ED0DFF890C000F1100A00F11404DC
:102AD00000F118074FF0000811F80850CAF800502C
:102AE00001E066450ED026683B68256846EA034645
:102AF00015F4706F26F07F46F3D0C1464846BDE816
:102B0000F00F704708F10108C845E5D111F8081029
:102B1000DFF844C0CAF8001025683E68216845EA1D
:102B2000064511F4706F25F07F45E7D16545F3D177
:102B3000BBF1000F0DD00368914643F400730360AE
:102B4000DCE700F1100A00F1140400F11807C84690
:102B5000DCE79146D2E700BF840007002DE9F04F83
:102B6000012B83B0019280468A469DF8309018BFB1
:102B700000F1180743D03E6816F00200FBD1D8F8E8
:102B80000010454641F48071DFF884B045F8141B0D
:102B900003E0296811F4706F25D129683A681C4C4C
:102BA00041EA024C0CEA04045C45F2D14FEA4A0ABD
:102BB0005FFA8AF1C8F81010DFF858A003E029681E
:102BC00011F4706F0FD12968D7F800C0114C41EA99
:102BD0000C410C405445F2D1019A16F4E06F117883
:102BE000C8F8101002D003B0BDE8F08F019A40463B
:102BF000511C5A1E4B46FFF75FFF0130F3E7127876
:102C00004B46FFF713FFD0F1010038BF0020EAE781
:102C10000100030082000700F0B40468034644F496
:102C2000806404600468DFF880C044F4807443F872
:102C3000144B00F1180503E01C6814F4706F07D101
:102C40001E682F68184C46EA074634406445F3D1A5
:102C5000490041F00101C9B2144F016103E0196854
:102C600011F4706F07D11C682E68104944EA0644BD
:102C70002140B942F3D1AAB102680D4E22F480621C
:102C8000026001E0B14209D019682C681A6841EA73
:102C9000044112F4706F21F07F41F3D0036843F4D4
:102CA00000730360F0BC70470100030002000300E2
:102CB000400003002DE9F04790469A4600228146E5
:102CC000FFF7AAFFBAF1000F05D0D9F8003023F4BE
:102CD0008063C9F80030124B09F1140409F1180798
:102CE00001E09E4209D021683E68256841EA06411C
:102CF00015F4706F21F07F46F3D011F4C06003D15A
:102D0000D9F8103088F80030BAF1000F05D0D9F8A2
:102D1000003043F40073C9F80030BDE8F08700BF0D
:102D2000400003002DE9F0078246002A40D0501EE3
:102D300049D0DFF8A4800AF114040AF1180C4FF00E
:102D4000000901E046450ED02668DCF800702568D1
:102D500046EA074615F4706F26F07F46F2D04846E3
:102D6000BDE8F0077047DAF8105001F8095009F192
:102D700001098145E8D1FBB9DFF85C802668DCF801
:102D80000070256846EA074615F4706F26F07F4606
:102D9000E6D14645F2D1DAF8100001F809003BB15E
:102DA000DAF80030104643F40073CAF80030D7E771
:102DB0001046BDE8F0077047DAF8005025F480654A
:102DC000CAF80050D8E70AF114040AF1180C814639
:102DD000002BD1D0F0E700BF400003002DE9F04701
:102DE000994680468C4692469DF82030B9F1000FF6
:102DF00058D0B9F1010F52D000F11806326892078D
:102E0000FCD4D8F80020454642F48062C8F800207F
:102E1000D8F80020284942F4807245F8142B03E0CA
:102E20002A6812F4706F3DD12F683268224C47EA4D
:102E300002473C408C42F3D14FEA4C0242F001027F
:102E4000D2B2C8F810201D4803E02A6812F4706F4F
:102E500028D12A683168194C42EA01421440844260
:102E6000F3D1174C01E0A04209D02A6830682968E4
:102E700042EA004211F4706F22F07F40F3D012F466
:102E8000E06F0FD1D8F81020514601F8012B4046D1
:102E900009F1FF32FFF746FF0130BDE8F087FFF789
:102EA00009FF10B10020BDE8F087D8F8103048467F
:102EB0008AF80030BDE8F08701000300020003003B
:102EC00040000300F8B506460F4662B114460025DF
:102ED000336830461B6817F8011B9847013C0544CE
:102EE000F6D12846F8BD1546FBE700BF08B50368D4
:102EF0001B68984708BD00BF2DE9F04792B09DF8C8
:102F000068800021B8F1010F814614461D468DF8F6
:102F1000441024D95FFA88F600270DF1430A01E036
:102F200004460D46204632463B46294602F020FD27
:102F300008FB1044E4B2092C94BF30343734E4B2B7
:102F400050EA010253460AF80149E9D1D9F80020B4
:102F5000194648465368984712B0BDE8F0870A26DC
:102F600000274FF00A08D8E770B5049929B1C9B213
:102F70000491BDE87040FFF7BFBF0368D1B21B6882
:102F8000984770BD00B583B000920023CAB2FFF726
:102F9000EBFF03B05DF804FB044A05491368002BFE
:102FA00008BF0B4618441060184670475038002080
:102FB0003C4400204FF0FF30704700BF4FF40053F7
:102FC0004B600020704700BF012070470020704711
:102FD0001046704710467047FEE700BF10B50C4919
:102FE00004460C48FEF73EFF42F21070FEF7CAFEA0
:102FF0000948FEF7E1FE094B4FF000721A60FDF739
:103000001FFC0748FDF724FCFDF712FC204610BD0D
:103010000108010000A24A04010000100400014060
:1030200040190100024B1A6C01321A64704700BF4C
:1030300054380020064A136CDB4383429CBF0023B4
:103040001364136C1844136C9842FCD1704700BF92
:103050005438002000EBC0004000FEF793BE00BFD4
:103060000148FFF7BBBF00BF983800200D4B10B5DB
:103070001A68D00703D5196821F00101196091077A
:1030800004D5084B196821F00201196005490B6845
:103090009B06FCD5044B1C6A1CB10020014603466C
:1030A000A04710BD042800409C38002010B51446ED
:1030B000620610D4A30601D4002010BD0E4B0F48A9
:1030C0001C68FEF799FB0028F6D1E1B20B48FEF729
:1030D000B1FB002010BD0A48FEF79AFB28B908484A
:1030E000FEF79CFB044B1860E4E706484FF04011E4
:1030F00001F024F9DEE700BF04380140D038002099
:10310000C038002000380140F8B5274D4FF49674C0
:1031100005F1200705F5A67622463846002104F081
:103120004BFA22463046002104F046FA2846314642
:103130002246FEF7A1FB1D4E3946224605F110003E
:10314000FEF79AFB1A48FEF737FE30464FF400713F
:103150004FF0C042FDF7D4FF164C30464FF480616B
:103160004FF00052FDF7CCFF1348FEF725FE00227A
:1031700020464FF4E13101F019F820460F4901F0E3
:103180001DF93520FDF700FA20464FF0201101F01F
:1031900095F841F28830FEF7F5FD204642F20C0129
:1031A000BDE8F84001F07CB8C038002000080140BC
:1031B000040000100038014000400010AD3000084D
:1031C0000A4601460148FEF741BB00BFC038002057
:1031D00010B504460548FEF70FFB0028FAD121463A
:1031E0000248BDE81040FEF725BB00BFC0380020F4
:1031F00008B50548FEF70CFB0028FAD10248BDE8E7
:103200000840FEF70BBB00BFD038002010B5064CBD
:103210000021204601F04CF820464FF04011BDE857
:10322000104001F04BB800BF00380140084B09487E
:103230001A68196810B502F01E02846821EA0201BA
:10324000196024B11AB1002003460221A04710BD25
:1032500010000040383B002030B4056A134C25F0C4
:1032600001050562856942EA031325F0F305A042D2
:1032700043EA0505036A10D020F44062B2F1804FA2
:103280000BD00B4A904208D023F00A0341F0010111
:1032900019438561016230BC704723F0020341F09D
:1032A000010119438561016230BC7047002C014067
:1032B0000034014030B4046A1B0324F0100404629B
:1032C0008569134C43EA022225F47345A0424FEA74
:1032D000011142EA0505036A10D020F44062B2F100
:1032E000804F0BD00B4A904208D023F0A00341F04E
:1032F00010010B438561036230BC704723F020034B
:1033000041F010010B438561036230BC704700BF80
:10331000002C0140003401400B4B10B51B681A050E
:103320000AD50A4B1A68130606D5094B00201C68FB
:1033300001460346A04710BD054B00201C6C01460A
:1033400002460346A04710BD18100240102C014051
:10335000683B00200B4B10B51B681A050AD50A4BB9
:103360001A68D30706D5094B00205C68014603465E
:10337000A04710BD054B00205C6C01460246034689
:10338000A04710BD18100240102C0140683B0020DF
:10339000104B10B51B681A0513D50F4B1A6812F0A5
:1033A000400007D193060CD50C4C01460346E46857
:1033B000A04710BD094B00209C6801460346A0476A
:1033C00010BD064B00209C6C014602460346A047F8
:1033D00010BD00BF18100240102C0140683B0020B7
:1033E00010B5044B044A00201C69126801460346CC
:1033F000A04710BD683B0020102C014010B5044BC5
:10340000044A00209C69126801460346A04710BD8B
:10341000683B00201004004010B5044B044A002013
:10342000DC69126801460346A04710BD683B0020D6
:103430001008004010B5044B044A00201C6A1268B2
:1034400001460346A04710BD683B0020100C004019
:1034500010B5044B044A00205C6A1268014603461A
:10346000A04710BD683B00201010004010B5044B71
:10347000044A00209C6A126801460346A04710BD1A
:10348000683B002010140040012906D0022906D014
:1034900003290CBFC06B006C7047406B7047806B9A
:1034A000704700BF012A08D00223013903FA01F155
:1034B000C3680A401A43C2607047C36843F00103FF
:1034C000C3607047314B984258D012D9304B984264
:1034D00039D021D8A3F58A3398422BD003F586330F
:1034E000984247D0A3F58833984225D1294B1965D6
:1034F0007047A3F58053984233D028D9264B984281
:103500001BD003F58063984231D0A3F50063984245
:1035100012D1204B19627047204B984210D003F50E
:10352000806398422DD0A3F50063984204D1194BD3
:1035300019647047174B59657047164B59627047AD
:10354000144B59647047134B1963D9637047B0F13A
:10355000804F09D0A3F58063984215D10D4B996136
:1035600070470C4BD96170470A4B59617047094B42
:1035700099627047074B596019617047054BD964D0
:103580007047044B99647047704700BF00180040B3
:1035900000340140683B0020001000400050014012
:1035A00001F180410139890001238B4010B40224CC
:1035B0008C408A40016A21EA03010162016A21EA22
:1035C00004040462016A5DF8044B0A430262026A61
:1035D00013430362704700BFF0B4046A164E24F030
:1035E00001040462076A4468856903F0030325F057
:1035F000730C27F00207B04243EA07034CEA0101CB
:10360000049D09D006F50066B04205D04460816192
:10361000F0BC426303627047059F05F0080623F083
:103620000C03334324F4407405F0040507F440769A
:103630002B433443EAE700BF002C0140F0B4046A96
:10364000184D24F010040462076A446886691B015F
:1036500003F0300C27F0200726F4E646A8424CEA97
:10366000070346EA012109D005F50065A84205D007
:1036700044608161F0BC826303627047049EDDF8A0
:1036800014C0350105F0800723F0C0034FEA8C0613
:1036900024F460643B4305F0400506F460662B4368
:1036A0003443E5E7002C0140F0B4046A184D24F4DB
:1036B00080740462076A4468C6691B0203F4407C94
:1036C00027F4007726F07306A8424CEA070346EA7F
:1036D000010109D005F50065A84205D04460C1612B
:1036E000F0BCC26303627047049EDDF814C035026B
:1036F00005F4006723F440634FEA0C1624F44054A9
:103700003B4305F4806506F440562B433443E5E71C
:10371000002C0140F0B4046A124D24F48054046279
:10372000076A4468C6691B0303F4005C27F400576A
:1037300026F4E646A84247EA0C0346EA012109D0EE
:1037400005F50065A84205D04460C161F0BC026483
:1037500003627047059E24F48044B50105F480455A
:103760002C43F1E7002C0140012938B504465FD015
:1037700002296BD003292BD0016A059D21F48051C9
:10378000216228013949E56940EA032325F0F30560
:103790008C424FEA023243EA0503206A07D024F440
:1037A0004061B1F1804F02D031498C4204D120F404
:1037B000005042F480521043E3612062E369049AAE
:1037C00023F44063E361E36943EA0223E36138BD24
:1037D000006A264920F480702062E069059D20F08F
:1037E000F30043EA05138C4243EA00034FEA022246
:1037F000206A0DD024F44061B1F1804F08D01C49FB
:103800008C4205D020F4206042F48072024304E030
:1038100020F4007042F480720243E3612262E369A3
:10382000049A23F00C03E361E3691343E36138BDB9
:1038300011461A46059BFFF70FFDA369049A23F072
:103840000C03A361A3691343A36138BD11461A4653
:10385000059BFFF72FFDA369049D23F44063A3613B
:10386000A36943EA0523A36138BD00BF002C0140D2
:103870000034014010B502F00F0282B0022A4FF06E
:1038800000020446009201924FF0010307D0FFF7B7
:103890006BFFA36823F00703A36002B010BDFFF71E
:1038A00063FFA36823F00703A360A36843F0040346
:1038B000A36002B010BD00BF036843F001030360C2
:1038C000704700BF036823F001030360704700BF27
:1038D00081624261704700BF01F18043013B30B417
:1038E0009B00012404FA03F3056A21F0020425EA8F
:1038F0000303012C03620CD030BC21F00301084407
:10390000836923F4E0438361836943EA022282618D
:103910007047074BA3FB014130BC490800EB810015
:10392000836923F07003836183691A43826170475E
:10393000ABAAAAAA2DE9F04F604C83B0A042824600
:103940008B469146984616D05D4B984213D003F5AE
:10395000C05398420FD003F5806320F480629A42EE
:1039600009D0FEF7BDFC574A1268C2F30222012AB1
:1039700009D1400007E0FEF7C3FC524A1268C2F3C7
:10398000C222012AF5D0444601254FF6FC7C4FF6B1
:10399000FF7202E00135954205D0B0FBF4F6B71E88
:1039A00067454444F6D809F0F00120296CD057D976
:1039B000302934D0402911D1DAF80030002223F028
:1039C0000803CAF80030DAF800305946CAF8003067
:1039D0005046009201920123FFF7C6FEDAF800304C
:1039E00009F00F0923F07003CAF80030DAF800304C
:1039F000B9F1010F18BF43F01003CAF80030DAF82C
:103A00000020002342F08002CAF80020CAF82C608F
:103A1000CAF82850CAF8143003B0BDE8F08FDAF8BD
:103A200000304FF4806223F00803CAF80030DAF85F
:103A30000030BBF1010FCAF800304FF000038DE8F1
:103A40000C0050464FEA56024FF480732CD0BBF165
:103A5000020F2FD0BBF1030F29D0FFF75BFEBDE7AC
:103A60001029BBD1DAF80030594623F00803CAF810
:103A70000030DAF80030504643F00803CAF800304E
:103A80000022FFF729FFA9E7DAF80030594623F0B2
:103A90000803CAF80030DAF800305046CAF800309F
:103AA0000022FFF719FF99E7FFF796FD96E7FFF76A
:103AB000FBFD93E7FFF7C2FD90E700BF002C01403C
:103AC0000034014004100240C1627047014B024AB9
:103AD0001A607047C03B00200030014010B50368F9
:103AE000044623F07F4323F0FF03B3F5804F01D05A
:103AF000002010BDC378053B032B29D8DFE803F075
:103B0000121B08028368187850BBFCF7A1FF19E06C
:103B1000816808784A788B78D1F80310F0B9FDF7FE
:103B200001F9E5E7FCF748FF0E49012300220B707D
:103B300023702273DCE783681878D3F8011058B932
:103B4000FCF792FE0122002322702373002010BD97
:103B5000002303700373CBE70120F1E70120DEE7C8
:103B60000120D2E7D43B002070B5036882B023F077
:103B70007F4323F0FF030025B3F5103F0446ADF863
:103B8000065002D0002002B070BDC678022E0CD0C4
:103B9000032E04D0012E14D005700573F2E7FEF752
:103BA00087FC012325732370ECE7FEF701FC2369F2
:103BB000C0F30721187023690122597026732270FF
:103BC000E0E7FEF7FBFB26702573DBE730B5036803
:103BD00085B023F07F4323F0FF03B3F5A03F0446F5
:103BE00002D0002005B030BDC578022D3CD0032D99
:103BF00007D0012D44D0002300202370237305B08B
:103C000030BD0821B648FEF793FAB648FEF7D4F85F
:103C1000B548FDF793FDB4484FF480714FF460222E
:103C2000FDF74AFDB04802214FF46022FDF744FD44
:103C3000AD4800210A22FDF75BFDAB4801210B22B4
:103C4000FDF756FDA84802210C22FDF751FD29463B
:103C5000A5480D22FDF74CFDA3681B78032BCAD89D
:103C6000DFE803F0526C381B83681B78052BC2D841
:103C7000DFE813F05E015001420127011901000144
:103C800083681B78052B00F26181DFE813F0DC000C
:103C9000C500B5009E008700710008219348FDF71C
:103CA00069FAFEF789F8914808210022FDF728FA01
:103CB0008D486946FDF748FD0023039AD90022FA92
:103CC00001F12269D1540133042BF6D1012223736F
:103CD000227086E704218548FDF74CFAFEF76CF860
:103CE000824804210022FDF70BFA7F486946FDF760
:103CF0002BFD0023029AD90022FA01F12269D15446
:103D00000133042BF6D1E1E701217848FDF732FABF
:103D1000FEF752F8754801210022FDF7F1F97248CB
:103D20006946FDF711FD0023009AD90022FA01F13E
:103D30002269D1540133042BF6D1C7E702216B4825
:103D4000FDF718FAFEF738F8684802210022FDF75F
:103D5000D7F965486946FDF7F7FC0023019AD900B9
:103D600022FA01F12269D1540133042BF6D1ADE7D7
:103D700040215E48FDF7FEF9FEF71EF85B48402142
:103D80000322FDF791F9A36858485A784021FDF7BE
:103D9000ADF9012323700023237322E74FF48071D0
:103DA0005248FDF7E7F9FEF707F850484FF48071E5
:103DB0000322FDF779F9A3684C485A784FF48071D3
:103DC000FDF794F901232370E5E74FF400714748AC
:103DD000FDF7D0F9FDF7F0FF44484FF400710322DE
:103DE000FDF762F9A36841485A784FF40071FDF776
:103DF0007DF901232370CEE74FF480713C48FDF735
:103E0000B9F9FDF7D9FF3A484FF480710322FDF765
:103E10004BF9A3683648D0E74FF480513548FDF799
:103E2000A9F9FDF7C9FF33484FF480510322FDF78C
:103E30003BF9A3682F485A784FF48051FDF756F9A3
:103E400001232370A7E74FF400412A48FDF792F9B8
:103E5000FDF7B2FF27484FF400410322FDF724F994
:103E6000A36824485A784FF40041FDF73FF9012335
:103E7000237090E720211D48FDF77CF9FDF79CFF9A
:103E80001A4820210822FDF70FF91848202125693A
:103E9000FDF728F900304FF0010318BF012028700A
:103EA000237023739DE610211048FDF763F9FDF799
:103EB00083FF0E4810210822FDF7F6F80B48102169
:103EC000E5E708210948FDF755F9FDF775FF0821D9
:103ED0000A460648FDF7E8F804480821D7E700BF7E
:103EE000170E0838000200100024014000100140A5
:103EF00000080140000C014004211648FDF73AF982
:103F0000FDF75AFF134804210822FDF7CDF81148A8
:103F10000821BCE702210F48FDF72CF9FDF74CFF03
:103F20000C4802210822FDF7BFF80A480221AEE73B
:103F300001210848FDF71EF9FDF73EFF0548012164
:103F40000822FDF7B1F803480121A0E70023037020
:103F500021E700BF0010014038B5C378012B12D013
:103F6000022B2BD0032B39D01E4954230022046985
:103F7000551CA35411F8013FEAB2002BF7D103708E
:103F80000273002038BD037963B1002381680269A0
:103F9000CC5C591CD4540279CBB29A42F6D1026956
:103FA0000021D15401690023CA5C0133DBB2002A2D
:103FB000FAD1012203730270002038BD0A4953234D
:103FC00000220469551CA35411F8013FEAB2002BEA
:103FD000F7D1012302730370002038BDFEF718F9F2
:103FE000CFE700BF00240108E8230108000000001B
:103FF00070B5036884B023F07F4323F0FF030024EF
:10400000B3F5882F064601940294ADF80C4002D017
:10401000002004B070BDC578022D0CD0032D06D051
:10402000012D42D000203470347304B070BD0123E0
:1040300004730370ECE72648FDF766F90128F1D018
:1040400002A80DF10A0103AAFDF7A2F90128E9D09F
:10405000BDF9080000F096FE0446BDF90A000D46C1
:1040600000F090FE02460B462046294600F090FAEA
:1040700015A3D3E9002300F0EBFE0022154B00F05E
:1040800035FD01F0A7F93369C0F3072118703369D2
:10409000C0F3074259703369000E9A7033690121E9
:1040A0000422D87031703273B2E70B48FDF7BCFEC2
:1040B00040F6FF70FDF766FEFDF7ACF80128B1D0C1
:1040C00035703473A4E700BF775AF01ADCA54C4072
:1040D000700C20710080664000580040AFF30080F3
:1040E00002F0B6BE074B08491A68186810B50C688C
:1040F00020EA020018601CB1002001460346A047D8
:1041000010BD00BF00380140D83B0020074B0848D5
:104110001A68196810B5446821EA020119601CB1D7
:10412000002001460346A04710BD00BF00440040E8
:10413000D83B0020074B08481A68196810B58468F6
:1041400021EA020119601CB1002001460346A04784
:1041500010BD00BF00480040D83B0020074B084876
:104160001A68196810B5C46821EA020119601CB107
:10417000002001460346A04710BD00BF004C004090
:10418000D83B0020074B08481A68196810B5046925
:1041900021EA020119601CB1002001460346A04734
:1041A00010BD00BF00500040D83B0020F8B5304B98
:1041B000044698420F4616463AD02E4B98424FD0AE
:1041C0002D4B984250D02D4B98420CBF2C482D4877
:1041D000FDF7DCFD226906F4405322F440522261CF
:1041E0002361E36806F4B05623F4B05323F00C03C4
:1041F000E360E660FEF774F804F10C0500EB800064
:1042000000EB8000204ABF00B0FBF7F1A2FB0103E6
:1042100064205B0903FB101109013231A2FB01028A
:10422000C2F3431242EA03132A682A68A360F8BD66
:104230001648FDF7ABFD164B164D196806F44052B3
:1042400021F4405119601A602B6806F4B05623F42B
:10425000B05323F00C032B602E60FEF751F8CDE72E
:104260000D48FDF793FDB5E70C48FDF78FFDB1E76D
:10427000003801400044004000480040004C00402D
:1042800008001020100010201F85EB510040001086
:10429000103801400C3801400200102004001020AA
:1042A000C36842F20C0211400B43C360704700BF69
:1042B00003681B06FCD54160704700BFB1F1401F89
:1042C0001DD01B4B99421FD0B1F1801F21D0B1F1FD
:1042D000201F0FD0B1F1101F20D0164B994222D0D1
:1042E000154B994243690CBF43F0010343F48063CB
:1042F00043617047C36843F02003C3607047C368DD
:1043000043F04003C3607047C36843F48073C360E5
:104310007047C36843F08003C3607047C36843F0CD
:104320001003C3607047036943F0400303617047A3
:10433000000101002010000101200E00B1F1401F1A
:104340001DD01B4B99421FD0B1F1801F21D0B1F17C
:10435000201F0FD0B1F1101F20D0164B994222D050
:10436000154B994243690CBF23F0010323F480638A
:1043700043617047C36823F02003C3607047C3687C
:1043800023F04003C3607047C36823F48073C360A5
:104390007047C36823F08003C3607047C36823F08D
:1043A0001003C3607047036923F040030361704743
:1043B000000101002010000101200E00114B984265
:1043C0001CD00AD8A3F50063984214D003F580638B
:1043D00098420FD10C4B996070470C4B984206D015
:1043E00003F56843984204D1074B19607047064BA8
:1043F000196170477047044B59607047024BD96090
:10440000704700BF004C0040D83B002000500040E7
:10441000006880F04000C0F380107047000000008A
:104420002DE9F84FC1F30A57A7F2FF36132E0246C3
:104430000B4604460D4689468A4680461CDC002E03
:1044400040DB3D4F374107EA010C5CEA000C18D015
:1044500037A3D3E9002300F049FB0022002300F03A
:1044600087FF28B1002D42DB2AEA07094FF0000838
:1044700040464946BDE8F88F332E06DDB6F5806F1D
:1044800031D010461946BDE8F88FA7F2134C4FF013
:10449000FF3B2BFA0CFB1BEA000FF2D024A3D3E95D
:1044A000002300F023FB0022002300F061FF00281E
:1044B000DED0002D22DB28EA0B08D14640464946D3
:1044C000BDE8F88F1AA3D3E9002300F00FFB002208
:1044D000002300F04DFF0028CAD0002D1CDB4FF058
:1044E0000008C146C4E700F001FBBDE8F88F4FF4B7
:1044F000801A4AFA06F606EB050AB5E7142E14D020
:10450000C7F586670123033703FA07F717EB04089B
:1045100028BF05EB030ACEE725F00042074B2243F4
:1045200018BF99464FF00008A2E705F1010AC2E75B
:104530009C7500883CE4377EFFFF0F000000F0BF51
:1045400031F0004310B408D00F4AA3F58014944210
:104550000AD804205DF8044B704700280CBF0220E5
:1045600003205DF8044B7047B3F5801F01D2032090
:10457000F7E7064A934201D00020F2E7D0F10100AC
:1045800038BF0020EDE700BFFFFFDF7F0000F07FB6
:1045900000F002B8000000002DE9F047C2F1000968
:1045A00049EA020923F00048DFF8D4C148EAD97982
:1045B00082B0E14514461D46CDE900010F4647D8BB
:1045C000C0F1000A4AEA000A21F0004949EADA7A11
:1045D000E2453DD803F1404C0CF5801C5CEA020C2E
:1045E0004CD04FEAA37A0AF0020A4AEAD17A59EA91
:1045F000000136D058EA04013AD06149884551D0CB
:104600005F49894534D0C8EB09084FEA2858B8F10A
:104610003C0F43DC002D70DBDDE9000100F042FDC2
:1046200000F05AFA00F0B0F8BAF1010F62D0BAF116
:10463000020F52D0BAF1000F10D03FA3D3E90023EC
:1046400000F052FA3EA3D3E9002300F04DFA05E052
:1046500010461946DDE9002300F048FA02B0BDE833
:10466000F087BAF1030FC5D8DFE80AF00D0D14107A
:10467000002F2EDB34A1D1E90001EFE702B0BDE845
:10468000F04700F081B8DDE90001E7E730A1D1E9AA
:104690000001E3E72AA1D1E90001DFE72AA1D1E97E
:1046A0000001C1E7C1452ED0BAF1030FA8D801A17E
:1046B00051F82AF0CD460008C54600089546000886
:1046C0008D46000800204FF00041C7E70020002180
:1046D000C4E721A1D1E90001C0E717A3D3E9002372
:1046E00000F002FA02460B4615A1D1E9000100F0E4
:1046F000FBF9B3E701F10041B0E718F13C0F8BDAA9
:104700000020002190E7BAF1030FB1D8DFE80AF0EA
:1047100006020E0A12A1D1E900019FE712A1D1E918
:1047200000019BE712A1D1E9000197E712A1D1E9AD
:10473000000193E7AFF30080075C143326A6A13C89
:10474000182D4454FB210940182D4454FB21F93FF6
:10475000182D4454FB2109C0182D4454FB21F9BFE6
:10476000182D4454FB21E9BF182D4454FB21E93F87
:10477000D221337F7CD902C0D221337F7CD9024041
:104780000000F07FAFF300802DE9F04FB64B21F031
:1047900000469E4283B004460D4689460FDDB3496C
:1047A0008E4200F3B38000F0AE80B9F1000F40F309
:1047B000EF8091A1D1E9000103B0BDE8F08FAC4BCF
:1047C0009E4200F3BD80A3F1DE739E4240F3A780BA
:1047D0004FF0FF3C22462B4620462946CDF804C028
:1047E00000F036FB02460B4682468B4600F030FB5B
:1047F00083A3D3E9002306460F4600F029FB82A3DA
:10480000D3E9002300F072F932463B4600F020FB6A
:104810007FA3D3E9002300F069F932463B4600F05C
:1048200017FB7DA3D3E9002300F060F932463B4635
:1048300000F00EFB7AA3D3E9002300F057F93246CB
:104840003B4600F005FB78A3D3E9002300F04EF9C6
:1048500052465B4600F0FCFA75A3D3E9002382467A
:104860008B463046394600F0F3FA73A3D3E90023B0
:1048700000F03AF932463B4600F0EAFA70A3D3E979
:10488000002300F031F932463B4600F0E1FA6EA316
:10489000D3E9002300F028F932463B4600F0D8FA6D
:1048A0006BA3D3E9002300F01FF932463B4600F02A
:1048B000CFFADDF804C00246BCF1FF3F0B466BD0D7
:1048C000504659464FEACC0600F010F922462B46D6
:1048D00000F0BEFA674F684B37441E44D6E9002308
:1048E00000F002F922462B4600F0FEF802460B4685
:1048F000D7E9000100F0F8F8B9F1000F0CDA01F186
:104900000045294608E000283FF44FAF20462946DD
:1049100022462B4600F0EAF803B0BDE8F08F4EA324
:10492000D3E9002300F0E2F80022544B00F020FD10
:1049300000283FF44DAF2046294603B0BDE8F08F74
:1049400000F0CAF84E4B04469E420D4633DCA3F5F8
:1049500050239E4200F3A58002460B4600F0C6F8A5
:104960000022464B00F0C0F8002206460F462046C3
:1049700029464FF0804300F0B9F802460B46304616
:10498000394600F08FFB4FF0000C04460D4621E73E
:1049900033A1D1E90001BFE75046594600F0A6F81F
:1049A00022462B4600F054FA02460B462046294682
:1049B00000F09AF8B0E7334B9E4267DC0022324B9E
:1049C00000F092F8002206460F46204629462E4B5C
:1049D00000F03EFA0022294B00F088F802460B4610
:1049E0003046394600F05EFB4FF0020C04460D469F
:1049F000F0E600BFAFF30080182D4454FB21F93FCF
:104A000011DA22E33AAD903FEB0D76244B7BA93FC0
:104A1000513DD0A0660DB13F6E204CC5CD45B73F8E
:104A2000FF8300922449C23F0D5555555555D53F3A
:104A30002F6C6A2C44B4A2BF9AFDDE522DDEAD3F2E
:104A40006D9A74AFF2B0B33F711623FEC671BC3FCE
:104A5000C4EB98999999C93F9C7500883CE4377ECE
:104A6000182D4454FB21F9BFFFFF0F440000F07FD5
:104A7000FFFFDB3F50240108302401080000F03F15
:104A8000FFFFF23FFF7F03400000F83F02460B4666
:104A900000200F4900F006FB4FF0030C04460D46C2
:104AA00098E600220B4B00F01FF8002206460F4646
:104AB00020462946074B00F019F802460B463046BF
:104AC000394600F0EFFA4FF0010C04460D4681E63E
:104AD0000000F0BF0000F03F21F00041704700BF30
:104AE00081F0004102E000BF83F0004330B54FEA9F
:104AF00041044FEA430594EA050F08BF90EA020F0C
:104B00001FBF54EA000C55EA020C7FEA645C7FEA9E
:104B1000655C00F0E2804FEA5454D4EB5555B8BFC1
:104B20006D420CDD2C4480EA020281EA030382EA32
:104B3000000083EA010180EA020281EA0303362DC4
:104B400088BF30BD11F0004F4FEA01314FF4801C97
:104B50004CEA113102D0404261EB410113F0004FA9
:104B60004FEA03334CEA133302D0524263EB430360
:104B700094EA050F00F0A780A4F10104D5F1200EFE
:104B80000DDB02FA0EFC22FA05F2801841F1000159
:104B900003FA0EF2801843FA05F359410EE0A5F12D
:104BA00020050EF1200E012A03FA0EFC28BF4CF05E
:104BB000020C43FA05F3C01851EBE37101F0004514
:104BC00007D54FF0000EDCF1000C7EEB00006EEB21
:104BD0000101B1F5801F1BD3B1F5001F0CD34908AB
:104BE0005FEA30004FEA3C0C04F101044FEA445202
:104BF00012F5800F80F09A80BCF1004F08BF5FEA89
:104C0000500C50F1000041EB045141EA050130BD68
:104C10005FEA4C0C404141EB010111F4801FA4F10B
:104C20000104E9D191F0000F04BF01460020B1FA60
:104C300081F308BF2033A3F10B03B3F120020CDA98
:104C40000C3208DD02F1140CC2F10C0201FA0CF076
:104C500021FA02F10CE002F11402D8BFC2F1200CDB
:104C600001FA02F120FA0CFCDCBF41EA0C01904091
:104C7000E41AA2BF01EB0451294330BD6FEA0404DA
:104C80001F3C1CDA0C340EDC04F11404C4F12002C5
:104C900020FA04F001FA02F340EA030021FA04F3D7
:104CA00045EA030130BDC4F10C04C4F1200220FA2E
:104CB00002F001FA04F340EA0300294630BD21FA6C
:104CC00004F0294630BD94F0000F83F4801306BF32
:104CD00081F480110134013D4EE77FEA645C18BF26
:104CE0007FEA655C29D094EA050F08BF90EA020FBD
:104CF00005D054EA000C04BF1946104630BD91EAB5
:104D0000030F1EBF0021002030BD5FEA545C05D1B7
:104D10004000494128BF41F0004130BD14F58004F6
:104D20003CBF01F5801130BD01F0004545F0FE416A
:104D300041F470014FF0000030BD7FEA645C1ABF9F
:104D4000194610467FEA655C1CBF0B46024650EAD6
:104D5000013406BF52EA033591EA030F41F4002102
:104D600030BD00BF90F0000F04BF0021704730B588
:104D70004FF4806404F132044FF000054FF000015D
:104D800050E700BF90F0000F04BF0021704730B51E
:104D90004FF4806404F1320410F0004548BF4042F3
:104DA0004FF000013EE700BF42004FEAE2014FEA48
:104DB00031014FEA02701FBF12F07F4393F07F4F23
:104DC00081F06051704792F0000F14BF93F07F4F55
:104DD000704730B54FF4607401F0004521F0004198
:104DE00020E700BF50EA010208BF704730B54FF01E
:104DF00000050AE050EA010208BF704730B511F023
:104E0000004502D5404261EB41014FF4806404F15A
:104E100032045FEA915C3FF4DCAE4FF003025FEADC
:104E2000DC0C18BF03325FEADC0C18BF033202EB64
:104E3000DC02C2F1200300FA03FC20FA02F001FABE
:104E400003FE40EA0E0021FA02F11444C1E600BF5D
:104E500070B54FF0FF0C4CF4E06C1CEA11541DBF10
:104E60001CEA135594EA0C0F95EA0C0F00F0DEF8DB
:104E70002C4481EA030621EA4C5123EA4C5350EAC0
:104E8000013518BF52EA033541F4801143F4801311
:104E900038D0A0FB02CE4FF00005E1FB02E506F0A2
:104EA0000042E0FB03E54FF00006E1FB03569CF0F7
:104EB000000F18BF4EF0010EA4F1FF04B6F5007FFD
:104EC00064F5407404D25FEA4E0E6D4146EB06066F
:104ED00042EAC62141EA55514FEAC52040EA5E50F8
:104EE0004FEACE2EB4F1FD0C88BFBCF5E06F1ED8A2
:104EF000BEF1004F08BF5FEA500E50F1000041EBD9
:104F0000045170BD06F0004646EA010140EA020085
:104F100081EA0301B4EB5C04C2BFD4EB0C0541EAA7
:104F2000045170BD41F480114FF0000E013C00F3BC
:104F3000AB8014F1360FDEBF002001F0004170BDE0
:104F4000C4F10004203C35DA0C341BDC04F11404F9
:104F5000C4F1200500FA05F320FA04F001FA05F285
:104F600040EA020001F0004221F0004110EBD37052
:104F700021FA04F642EB06015EEA430E08BF20EA7E
:104F8000D37070BDC4F10C04C4F1200500FA04F321
:104F900020FA05F001FA04F240EA020001F00041B3
:104FA00010EBD37041F100015EEA430E08BF20EA26
:104FB000D37070BDC4F1200500FA05F24EEA020E6E
:104FC00020FA04F301FA05F243EA020321FA04F09D
:104FD00001F0004121FA04F220EA020000EBD37054
:104FE0005EEA430E08BF20EAD37070BD94F0000F54
:104FF0000FD101F00046400041EB010111F4801F88
:1050000008BF013CF7D041EA060195F0000F18BF38
:10501000704703F00046520043EB030313F4801F74
:1050200008BF013DF7D043EA0603704794EA0C0F2E
:105030000CEA135518BF95EA0C0F0CD050EA410644
:1050400018BF52EA4306D1D181EA030101F00041C1
:105050004FF0000070BD50EA410606BF10461946E9
:1050600052EA430619D094EA0C0F02D150EA0136F5
:1050700013D195EA0C0F05D152EA03361CBF104636
:1050800019460AD181EA030101F0004141F0FE41D5
:1050900041F470014FF0000070BD41F0FE4141F459
:1050A000780170BD70B54FF0FF0C4CF4E06C1CEA59
:1050B00011541DBF1CEA135594EA0C0F95EA0C0F0E
:1050C00000F0A7F8A4EB050481EA030E52EA0335C9
:1050D0004FEA013100F088804FEA03334FF08055EA
:1050E00045EA131343EA12634FEA022245EA111517
:1050F00045EA10654FEA00260EF000419D4208BFC8
:10510000964244F1FD0404F5407402D25B084FEA74
:105110003202B61A65EB03055B084FEA32024FF420
:1051200080104FF4002CB6EB020E75EB030E22BF7D
:10513000B61A754640EA0C005B084FEA3202B6EB3D
:10514000020E75EB030E22BFB61A754640EA5C00EC
:105150005B084FEA3202B6EB020E75EB030E22BF7C
:10516000B61A754640EA9C005B084FEA3202B6EB7D
:10517000020E75EB030E22BFB61A754640EADC003C
:1051800055EA060E18D04FEA051545EA16754FEA9E
:1051900006164FEAC30343EA52734FEAC2025FEABC
:1051A0001C1CC0D111F4801F0BD141EA00014FF04B
:1051B00000004FF0004CB6E711F4801F04BF01431C
:1051C0000020B4F1FD0C88BFBCF5E06F3FF6AFAE38
:1051D000B5EB030C04BFB6EB020C5FEA500C50F1C8
:1051E000000041EB045170BD0EF0004E4EEA11314B
:1051F00014EB5C04C2BFD4EB0C0541EA045170BD52
:1052000041F480114FF0000E013C90E645EA060E95
:105210008DE60CEA135594EA0C0F08BF95EA0C0FC3
:105220003FF43BAF94EA0C0F0AD150EA01347FF40B
:1052300034AF95EA0C0F7FF425AF104619462CE7E2
:1052400095EA0C0F06D152EA03353FF4FDAE104645
:10525000194622E750EA410618BF52EA43067FF496
:10526000C5AE50EA41047FF40DAF52EA43057FF426
:10527000EBAE12E74FF0FF3C06E000BF4FF0010C31
:1052800002E000BF4FF0010C4DF804CD4FEA410C95
:105290007FEA6C5C4FEA430C18BF7FEA6C5C1BD062
:1052A00001B050EA410C0CBF52EA430C91EA030FE3
:1052B00002BF90EA020F0020704710F1000F91EA40
:1052C000030F58BF994208BF90422CBFD8176FEA0E
:1052D000E37040F0010070474FEA410C7FEA6C5CDC
:1052E00002D150EA013C07D14FEA430C7FEA6C5CE3
:1052F000D6D152EA033CD3D05DF8040B704700BF0F
:105300008446104662468C461946634600E000BF5C
:1053100001B5FFF7B7FF002848BF10F1000F01BD2E
:105320004DF808EDFFF7F4FF0CBF012000205DF8F9
:1053300008FB00BF4DF808EDFFF7EAFF34BF01207E
:1053400000205DF808FB00BF4DF808EDFFF7E0FF17
:1053500094BF012000205DF808FB00BF4DF808ED68
:10536000FFF7CEFF94BF012000205DF808FB00BFCF
:105370004DF808EDFFF7C4FF34BF012000205DF8B1
:1053800008FB00BF4FEA410212F5001215D211D5F9
:105390006FF47873B3EB625212D94FEAC12343F032
:1053A000004343EA505311F0004F23FA02F018BFB4
:1053B000404270474FF00000704750EA013005D17D
:1053C00011F0004008BF6FF0004070474FF0000040
:1053D000704700BF4A0011D212F5001211D20DD54C
:1053E0006FF47873B3EB62520ED44FEAC12343F0EB
:1053F000004343EA505323FA02F070474FF0000095
:10540000704750EA013002D14FF0FF3070474FF043
:10541000000070474FEA4102B2F1E04324BFB3F508
:10542000001CDCF1FE5C0DD901F0004C4FEAC0021B
:105430004CEA5070B2F1004F40EB830008BF20F0FF
:105440000100704711F0804F21D113F13872BCBFB9
:1054500001F00040704741F480114FEA5252C2F10E
:105460001802C2F1200C10FA0CF320FA02F018BF57
:1054700040F001004FEAC1234FEAD32303FA0CFCAA
:1054800040EA0C0023FA02F34FEA4303CCE77FEA39
:10549000625307D150EA01331EBF4FF0FE4040F483
:1054A0004000704701F0004040F0FE4040F4000032
:1054B000704700BF80F0004002E000BF81F0004173
:1054C00042001FBF5FEA410392EA030F7FEA226CAA
:1054D0007FEA236C6AD04FEA1262D2EB1363C1BF3A
:1054E000D218414048404140B8BF5B42192B88BFA9
:1054F000704710F0004F40F4000020F07F4018BFCC
:10550000404211F0004F41F4000121F07F4118BFEB
:10551000494292EA030F3FD0A2F1010241FA03FC93
:1055200010EB0C00C3F1200301FA03F100F000437B
:1055300002D5494260EB4000B0F5000F13D3B0F143
:10554000807F06D340084FEA310102F10102FE2AB2
:1055500051D2B1F1004F40EBC25008BF20F0010022
:1055600040EA03007047490040EB000010F4000FD0
:10557000A2F10102EDD1B0FA80FCACF1080CB2EB63
:105580000C0200FA0CF0AABF00EBC25052421843C2
:10559000BCBFD0401843704792F0000F81F4000167
:1055A00006BF80F400000132013BB5E74FEA41033A
:1055B0007FEA226C18BF7FEA236C21D092EA030FA6
:1055C00004D092F0000F08BF0846704790EA010F20
:1055D0001CBF0020704712F07F4F04D1400028BF4D
:1055E00040F00040704712F100723CBF00F500002F
:1055F000704700F0004343F0FE4040F40000704765
:105600007FEA226216BF08467FEA23630146420210
:1056100006BF5FEA412390EA010F40F48000704723
:105620004FF0000304E000BF10F0004348BF4042C9
:105630005FEA000C08BF704743F0964301464FF005
:1056400000001CE050EA010208BF70474FF0000361
:105650000AE000BF50EA010208BF704711F00043A2
:1056600002D5404261EB41015FEA010C02BF844672
:105670000146002043F0B64308BFA3F18053A3F5D1
:105680000003BCFA8CF2083AA3EBC25310DB01FA18
:1056900002FC634400FA02FCC2F12002BCF1004F9C
:1056A00020FA02F243EB020008BF20F0010070472D
:1056B00002F1200201FA02FCC2F1200250EA4C0081
:1056C00021FA02F243EB020008BF20EADC707047C7
:1056D0004FF0FF0C1CEAD0521EBF1CEAD15392EAD5
:1056E0000C0F93EA0C0F6FD01A4480EA010C4002B1
:1056F00018BF5FEA41211ED04FF0006343EA50100B
:1057000043EA5111A0FB01310CF00040B1F5000F4C
:105710003EBF490041EAD3715B0040EA010062F1FB
:105720007F02FD2A1DD8B3F1004F40EBC25008BFE5
:1057300020F00100704790F0000F0CF0004C08BF03
:1057400049024CEA502040EA51207F3AC2BFD2F1D0
:10575000FF0340EAC250704740F400004FF00003DE
:10576000013A5DDC12F1190FDCBF00F00040704718
:10577000C2F10002410021FA02F1C2F1200200FA56
:1057800002FC5FEA310040F1000053EA4C0308BF1D
:1057900020EADC70704792F0000F00F0004C02BF6E
:1057A000400010F4000F013AF9D040EA0C0093F0E9
:1057B000000F01F0004C02BF490011F4000F013B43
:1057C000F9D041EA0C018FE70CEAD15392EA0C0FB1
:1057D00018BF93EA0C0F0AD030F0004C18BF31F01C
:1057E000004CD8D180EA010000F00040704790F0F2
:1057F000000F17BF90F0004F084691F0000F91F096
:10580000004F14D092EA0C0F01D142020FD193EA5B
:105810000C0F03D14B0218BF084608D180EA0100E3
:1058200000F0004040F0FE4040F40000704740F0BF
:10583000FE4040F4400070474FF0FF0C1CEAD0528D
:105840001EBF1CEAD15392EA0C0F93EA0C0F69D0E9
:10585000A2EB030280EA010C49024FEA402037D054
:105860004FF0805343EA111143EA10130CF000404B
:105870008B4238BF5B0042F17D024FF4000C8B423B
:1058800024BF5B1A40EA0C00B3EB510F24BFA3EB1B
:10589000510340EA5C00B3EB910F24BFA3EB9103EB
:1058A00040EA9C00B3EBD10F24BFA3EBD10340EA45
:1058B000DC001B0118BF5FEA1C1CE0D1FD2A3FF68B
:1058C00050AF8B4240EBC25008BF20F00100704740
:1058D0000CF0004C4CEA50207F32C2BFD2F1FF03E3
:1058E00040EAC250704740F400004FF00003013A14
:1058F00037E792F0000F00F0004C02BF400010F4B8
:10590000000F013AF9D040EA0C0093F0000F01F0CB
:10591000004C02BF490011F4000F013BF9D041EAED
:105920000C0195E70CEAD15392EA0C0F08D1420220
:105930007FF47DAF93EA0C0F7FF470AF084676E7F3
:1059400093EA0C0F04D14B023FF44CAF08466EE7CC
:1059500030F0004C18BF31F0004CCAD130F000429A
:105960007FF45CAF31F000437FF43CAF5FE700BFF2
:105970004BB942B9002908BF002802D04FF0FF31CF
:10598000084600F0C3BF82B0EC462DE9005000F09D
:105990001DF8DDF804E002B00CBC70472DE9704F33
:1059A000089E14461D468046894600F0B1FF04FB60
:1059B00001F3A4FB00AB00FB05329344B8EB0A08EB
:1059C00069EB0B09C6E90089BDE8708F2DE9704FBE
:1059D000089E14461D468046894601F0E9F800FB02
:1059E00005F5A0FB04AB04FB0154A344B8EB0A0883
:1059F00069EB0B09C6E90089BDE8708F03685A009E
:105A00004CBF43F0004323F000431844704700BFED
:105A10002DE9F04F064683B0914621B3013901913B
:105A20008846002707EB080404EBD4746410E500F3
:105A300006EB050B5846FFF7E1FF019B8246A342A8
:105A400005F10800304419D0FFF7D8FFCA4500F12E
:105A5000FF3004D9BC420BD004F1FF38E2E74845DF
:105A600002D2671CDEE78B46584603B0BDE8F08FD4
:105A70004FF0000B584603B0BDE8F08FCA45E9D897
:105A8000F2E700BF012807D0022807D0044B002806
:105A90000CBF184600207047024870470248704704
:105AA000C1610008C9610008D161000830B5274B09
:105AB00083B004468D1E002B42D0284601A9AFF3C7
:105AC0000080034623B32A460199FFF7A1FF05464C
:105AD00018B3FFF793FF6B68A064012B12D0002B63
